:020000022000DC
:1060000000000120B5620200DD620200DF620200D2
:10601000E1620200E3620200E562020000000000AB
:10602000000000000000000000000000E762020025
:10603000E962020000000000EB620200ED62020073
:10604000F58E0200EF620200E1970200EF620200AB
:10605000EF620200EF620200E9920200EF620200CA
:10606000EF620200EF620200EF620200EF620200E4
:10607000EF620200EF620200EF620200EF620200D4
:10608000EF620200F5730200EF620200EF620200AD
:1060900095740200EF62020011B80200EF62020084
:1060A000EF620200EF620200EF620200EF620200A4
:1060B000EF620200EF62020000000000000000003A
:1060C000EF620200EF620200EF620200EF62020084
:1060D000EF620200EF620200EF62020000000000C7
:1060E00000000000000000000000000000000000B0
:1060F00000000000000000000000000000000000A0
:10610000000000000000000000000000000000008F
:10611000000000000000000000000000000000007F
:10612000000000000000000000000000000000006F
:10613000000000000000000000000000000000005F
:10614000000000000000000000000000000000004F
:10615000000000000000000000000000000000003F
:10616000000000000000000000000000000000002F
:10617000000000000000000000000000000000001F
:10618000000000000000000000000000000000000F
:1061900000000000000000000000000000000000FF
:1061A00000000000000000000000000000000000EF
:1061B00000000000000000000000000000000000DF
:1061C00000000000000000000000000000000000CF
:1061D00000000000000000000000000000000000BF
:1061E00000000000000000000000000000000000AF
:1061F000000000000000000000000000000000009F
:1062000010B5054C237833B9044B13B10448AFF3F0
:1062100000800123237010BD6023002000000000D7
:1062200058C8020008B5034B1BB103490348AFF33C
:10623000008008BD000000006423002058C8020050
:10624000154B002B08BF134B9D46A3F5803A002148
:106250008B460F461348144A121A05F09DFC0F4B4B
:10626000002B00D098470E4B002B00D09847002001
:10627000002104000D000D48002802D00C48AFF3A7
:10628000008005F057FC2000290004F0A7F805F075
:106290003DFC00BF000008000000012000000000DD
:1062A0000000000060230020002D002000000000FE
:1062B000000000000649074A074B9B1A03DD043B18
:1062C000C858D050FBDC02F0D1FAFFF7B9FF00004C
:1062D00038C90200B822002060230020FEE7FEE754
:1062E000FEE7FEE7FEE7FEE7FEE7FEE7FEE7FEE786
:1062F000F0B595B0002415460F4608461E4602F03C
:1063000073F9384623460895082205A91A9D09966F
:106310000D950A948DF82C400C9402F0C9F99DF863
:1063200014308DF81140DDE9061003F00302012A54
:10633000CDE9020127D0022A04D0384602F058F9EC
:1063400015B0F0BDBDF81650C3F3C2038DF8103080
:10635000AD090826082D2C4628BF082433462246BE
:106360000EA9384602F0A4F92D1B214608AB02AA5B
:106370000EA8264400F012FE002DEBD1384602F0A4
:1063800037F915B0F0BDBDF81460059DC6F383164E
:10639000C3F3C204B2000EA9384608238DF810409A
:1063A000C5F3952502F084F908AB324628460EA9BC
:1063B000009302AB00F07CFD384602F019F915B0ED
:1063C000F0BD00BF014B01221A707047C0230020AE
:1063D000704700BF00B583B0044B0093044A4023CC
:1063E000FFF786FF03B05DF804FB00BFF563020012
:1063F0008023002038B50E480E4D03780E4CEB5C20
:106400000025D2B2257053B1043003F071FE58B9A3
:106410000A4B1B7813B12378002BFCD038BD0C300D
:1064200003F028FC0028F3D000F09CFFF0E700BF49
:10643000B8220020FC2C0020C02300207C23002058
:1064400030B51448144A0378D35C89B0BBB104302A
:1064500003F0E6FD114D0FCD6C460FC495E80F001B
:10646000062584E80F00002269460A48009502F0DC
:10647000D9FC40B90A4B00221A7009B030BD0C306B
:1064800003F092FBE6E700F06DFF054B00221A7067
:1064900009B030BDB8220020FC2C0020D4BB020083
:1064A0007C23002030B50E4D0FCD89B06C460FC453
:1064B00095E80F00062584E80F000A4A0A4800956F
:1064C000694602F0AFFC20B9084B01221A7009B0EE
:1064D00030BD00F047FF054B01221A7009B030BDF6
:1064E000D4BB0200C5630200B82200207C23002038
:1064F00008B5FFF7D7FF0421034800F049FC034B20
:1065000001225A7108BD00BF20C90200CC22002020
:1065100038B50C4B0C48002400250022FF21C3E9AC
:106520000045C3F81824996083F82024C3F8142484
:1065300002F00CF8044610B9044802F02FF9204686
:1065400038BD00BF98240020ACC8020014BC020073
:10655000A9B1124B12495B1ADB081AD030B4114CA6
:106560002288824217D0002203E034F8225085426C
:106570000AD001329342F8D1002030BC7047084A5B
:1065800002EBC0021068704701EBC202106830BC19
:106590007047184670470A46F8E700BF20C9020056
:1065A000C0C802005C230020094B013903EBC00086
:1065B00003290BD8DFE801F0020806040220704727
:1065C0004079704700797047042070470020704779
:1065D000C0C802002DE9F047974CD4E900239A4245
:1065E00084B063D00023C4F81834BFF34F8FD4E9CC
:1065F000013503EA0501CA1C04EB820614F82220C7
:10660000500719D52768327802F00302012A43D0D7
:10661000022A03D17288023303EB921305EA0301C5
:10662000D4F81804CA1C04EB820628B99F4239D951
:1066300014F822205207E6D404EB81015A1CC968E1
:1066400001912A4004EB820201F00301D268029218
:10665000022903F102062DD0012900F09580D4F81B
:1066600010543DB12B6828469B689847EB681D681D
:10667000002DF7D17148724B7249C01AC00800044E
:1066800040F0020000F0E4F8D4E90030C01A18BF6E
:10669000012004B0BDE8F08732880233C2F38312D0
:1066A0001344BBE7676004B0BDE8F087002004B086
:1066B000BDE8F087BDF8063063484FEA9319B9F199
:1066C000500FC84628BF4FF0500868F38F1308F1E9
:1066D0000801ADF8063001F03BFF07460028BED0A8
:1066E00025EA060A0AF1010A01F07EFF4FEA8A0A4A
:1066F0000023082201A9384601F0A6FFD0457ED923
:10670000BAF1000F00F08E8005EA06010331A8EB14
:106710000A0504EB8101082352463846EDB201F028
:1067200093FF2A460AF108034849384601F08CFFD6
:1067300009F1030906EB9909D4F81834002B6DD13F
:10674000D4F8105465B1EB685A7928463946002AC6
:1067500060D02B681B689847EB681D68002DF2D14C
:10676000384601F045FF00230DF103008DF803309A
:1067700001F07CF9D4F818340BB9C4F804909DF8F2
:10678000030001F099F97FE7BDF804202E48C2F319
:106790008313062B28BF062363F389120233990063
:1067A000ADF8042001F0D4FE074600283FF457AFAF
:1067B00001F01AFF0023082201A9384601F044FF26
:1067C000BDF8043013F4707F33D04FF0000805EAB1
:1067D00006014FEA88030331083304EB81010422E8
:1067E000384601F031FFBDF8043008F10108C3F369
:1067F000831306F1010943454E46E8D89CE705EAB4
:106800000601033104EB810142460823384601F0BA
:106810001BFF8DE71D68002D95D1A1E7384601F0DB
:10682000E7FE31E7424608230849384601F00CFFED
:106830007EE7B14680E700BF98240020E8C8020048
:10684000C0C8020020BC0200ACC80200A424002082
:106850002DE9F04F674C87B0002380460DF10B0007
:106860008DF80B300191A56801F000F9D4E90123FE
:1068700026681A440132921B012A00F2B98004F200
:106880001C4704F214490121384601F06DF95A48B9
:1068900001F082F9484601F07FF9D4E9013E03EAAC
:1068A0000E00C21C04EB820114F8222012F0040234
:1068B00000F09B8003F1020C91F800B00BF0030B89
:1068C000BBF1010FE24600F08B80BBF1020F00F13B
:1068D000030B75D004EB8B01002AEDD104EB800093
:1068E0000133C268039203EA0E0304EB830302F050
:1068F0000302012AD9685BD0022A56D1BDF80E30B6
:106900009B0903334FEA114B0AEB930A484601F007
:106910004FF95946002846D03846C4F804A001F083
:1069200023F9D4E90113226819440131891A012994
:10693000A9D913400333023205219DF80B0044F816
:106940002310226001F0B8F800212C4801F0EAF889
:1069500080F31000731C2B4004EB830300043540CC
:10696000033540EA1840D86014F8253068F3C503B1
:1069700004F82530019B54F8252063F39F2222F46C
:10698000717323F0030343F0010344F8252024F836
:10699000253094F820341BB1FFF71CFE0028FBD1F2
:1069A00007B0BDE8F08F3846B9E74FF0000BADE710
:1069B000BDF80C30C3F383134FEA114B9A44A5E79B
:1069C0004B880CEB93130EEA0300C11C03F1020C7D
:1069D00014F82120E24604EB810102F004027BE777
:1069E0000B88C3F383136344EDE703F1020A75E7F1
:1069F00032469EE798240020B0280020B4280020CA
:106A00002DE9F04F6B4C87B0002380460DF10B0051
:106A1000CDE900128DF80B30A56801F027F8D4E914
:106A2000012326681A440132921B022A00F2BF8019
:106A300004F21C4704F214490121384601F094F88D
:106A40005D4801F0A9F8484601F0A6F8D4E9013EF6
:106A500003EA0E00C21C04EB820114F8222012F09B
:106A6000040200F0A18003F1020C91F800B00BF0D9
:106A7000030BBBF1010FE24600F09180BBF1020F66
:106A800000F1030B7BD004EB8B01002AEDD104EB6A
:106A900080000133C268039203EA0E0304EB830310
:106AA00002F00302012AD96861D0022A5CD1BDF844
:106AB0000E309B0903334FEA114B0AEB930A484609
:106AC00001F076F8594600284CD03846C4F804A0A6
:106AD00001F04AF8D4E90113226819440131891AF6
:106AE0000229A9D913400333033245219DF80B0035
:106AF00044F82310226000F0DFFFB31C2B4004EBAE
:106B00008303019A2D48DA60002101F00BF880F32D
:106B10001000731C2B4004EB830300043540033545
:106B200040EA1840D86014F8253068F3C50304F82B
:106B30002530009B54F8252063F39F2222F47173C3
:106B400023F0030343F0410344F8252024F82530C3
:106B500094F820341BB1FFF73DFD0028FBD107B0AE
:106B6000BDE8F08F3846B3E74FF0000BA7E7BDF85C
:106B70000C30C3F383134FEA114B9A449FE74B88C1
:106B80000CEB93130EEA0300C11C03F1020C14F882
:106B90002120E24604EB810102F0040275E70B8834
:106BA000C3F383136344EDE703F1020A6FE7324650
:106BB00098E700BF98240020B0280020B4280020C7
:106BC0002DE9F04F6F4C89B0002680460DF113007F
:106BD000CDE9011203938DF81360A56800F046FF1C
:106BE000D4E9012326681A440132921B032A00F2D9
:106BF000C68004F21C4704F214490121384600F013
:106C0000B3FF614800F0C8FF484600F0C5FFD4E973
:106C1000013E03EA0E00C21C04EB820114F822209C
:106C200012F0040200F0A88003F1020C91F800B009
:106C30000BF0030BBBF1010FE24600F09880BBF1B3
:106C4000020F00F1030B00F0828004EB8B01002A9D
:106C5000ECD104EB80000133C268059203EA0E0315
:106C600004EB830302F00302012AD96867D0022AE9
:106C700062D1BDF816309B0903334FEA114B0AEB82
:106C8000930A484600F094FF5946002852D03846EF
:106C9000C4F804A000F068FFD4E901132268194485
:106CA0000131891A0329A8D91340033304328521FD
:106CB0009DF8130044F82310226000F0FDFEB21C82
:106CC0002A40F31C2B4004EB820204EB8303029F57
:106CD000D7600021039A2D48DA6000F023FF80F38B
:106CE0001000731C2B4004EB830300043540033574
:106CF00040EA1840D86014F8253068F3C50304F85A
:106D00002530019B54F8252063F39F2222F47173F0
:106D100023F0030343F0810344F8252024F82530B1
:106D200094F820341BB1FFF755FC0028FBD109B0C3
:106D3000BDE8F08F3846ADE74FF0000BA1E7BDF896
:106D40001430C3F383134FEA114B9A4499E74B88ED
:106D50000CEB93130EEA0300C11C03F1020C14F8B0
:106D60002120E24604EB810102F004026FE70B8868
:106D7000C3F383136344EDE703F1020A69E7324684
:106D800092E700BF98240020B0280020B4280020FB
:106D9000F0B41B4ED6F810340746002B2DD0DC681B
:106DA000257900218D42084617D0234603E0DB6891
:106DB0001A798A4211D01B68002BF8D1FB68187130
:106DC000D6F810349BB1DA68FB6812681A60D6F8FE
:106DD0001034DB681F60F0BC7047092901F1010322
:106DE00001D01946DEE74FF0FF30F0BC7047C6F81F
:106DF0001074FA681360F0BC70471846DEE700BFF5
:106E00009824002038B5094BD3F81044012583F8A5
:106E100020544CB1E3685D71236820465B68984755
:106E2000E3681C68002CF5D138BD00BF9824002011
:106E300030B5C38883B004460D4613BB217A0529BB
:106E40001DD0637AA08873B9124B53F821400021FA
:106E5000FFF77EFB104903462246284603B0BDE8F3
:106E6000304000F01DBFFFF79FFB0C4B0C4953F85F
:106E70002020284600F014FF217AA088E4E703B020
:106E800030BD084A00920849084A284600F008FF29
:106E9000D4E700BFACBC0200A0BC020038BC0200BA
:106EA0009CBC020094BC02007CBC020074BC0200CA
:106EB0002DE9F04385B01D460C9C002381460E460B
:106EC000174694F80C80237321462846FFF7B0FF3D
:106ED000062F09D8DFE807F0042E343B444F1F008B
:106EE0004946204600F0DCFE2B7A052B05D06B7A54
:106EF0005BB92749204600F0D3FE204600F0C4FECF
:106F000084F80C8005B0BDE8F083224A224920466F
:106F100000F0C6FEEDE7D6E90413F2680393B36808
:106F20000291CDE900324946D6E90023204600F01F
:106F3000B7FED9E732684946204600F0B1FED3E7F4
:106F40004946D6E90023204600F0AAFECCE7B36804
:106F500000934946D6E90023204600F0A1FEC3E78E
:106F6000D6E90232019200934946D6E90023204631
:106F700000F096FEB8E7D6E90321B3680291CDE9A7
:106F800000324946D6E90023204600F089FEABE7EF
:106F900070BC020094BC02009CBC0200082900D90D
:106FA00070472DE9F04F1D4683B000241B7B2C73E6
:106FB00007460E461046294691460193DFF8C8A0C1
:106FC000DFF8C880FFF734FF05E03A5D013400F0D8
:106FD00067FE082C09D0A64241462846F5D85146FE
:106FE000013400F05DFE082CF5D12249DFF8A0A0A5
:106FF000214CDFF8A080284600F052FE4FF0000B35
:107000000EE012F8081011F0970F08BF2E2221464B
:1070100028460BF1010B00F043FEBBF1080F10D026
:107020005E4505D917F80B207E2AEAD92E22EEE715
:10703000514628460BF1010B00F032FEBBF1080F60
:10704000EED199F80830052B02D099F809305BB9D8
:107050000A49284600F024FE284600F015FE019B50
:107060002B7303B0BDE8F08F054A0649284600F0AF
:1070700017FEEDE768BC02006CBC020070BC0200A9
:1070800094BC02009CBC020064BC02005CBC020018
:10709000A8BC020051C702002DE9F04F424B93F803
:1070A00000E089B0BEF1000F6AD000263F4F3446A1
:1070B0000125B24605E00AF1010A5FFA8AF4A64505
:1070C0005ED93B4B39681E687A6816F83400A0F127
:1070D000200BC0F1200305FA0BFB25FA03F34BEA62
:1070E000030305FA00FC02EA030901EA0C08009315
:1070F00058EA090B06EBC4030593DCD0009B21EA98
:107100000C0122EA0303C7E9001302F0E3F8294B5C
:1071100016F834C0C2B2D3E900640023CDE90023DD
:10712000009AACF120018A400392009ACCF120032E
:1071300022FA03F3039A1A43CCF1200305FA01F172
:1071400025FA03F30B4305FA0CF1039201EA060258
:107150000692009A234002FA0CF202920793DDE9AC
:107160000634DDE90212944208BF8B420BD00E4B6D
:107170000AF1010A93F800E05FFA8AF4A645A0D864
:1071800009B0BDE8F08F059A5368002BEFD0517815
:10719000A1F10101B1FA81F14909091AB1FA81F1AC
:1071A000490960469847E2E75429002088290020D1
:1071B00090290020802900202DE9F84380462148AD
:1071C00000F01AFCD0B9204D0127D5E90023A8F121
:1071D0002004C8F1200607FA04F427FA06F607FA95
:1071E00008F9344302EA090003EA0401014307D025
:1071F00022EA090223EA0404C5E90024BDE8F88371
:10720000404602F067F8114B1E68A8B9586826EA94
:10721000090620EA0400D5E900211E600C4E5860E2
:1072200042EA09020C432A6031686C60054800227A
:10723000BDE8F84300F08ABB586849EA06062043D7
:10724000E9E700BF5C290020882900208029002070
:1072500058290020042A3BD92DE9F04182B00E467E
:107260000546144601F0C2FE68B31E491E4A1F4B74
:107270000D601F481F491C60167000230022741EF9
:10728000C0E90023C1E90023E4B21EB305EBC40446
:107290004FF000080327184E02E0A5421AD01C4602
:1072A000A37820788DF80530324601A98DF8068044
:1072B0008DF8047001F0A4FEA4F108030028ECD0BE
:1072C00002B0BDE8F08101F047FE0028CDD0F7E71D
:1072D00007207047094A0A48002100F025FB02B048
:1072E000BDE8F08190290020542900205829002071
:1072F0008029002088290020B971020099700200BD
:1073000018BD020070B5084D2B785BB1074E002404
:107310003368012113F8340001F04AFF2B7801345F
:10732000A342F5D8002070BD5429002090290020E8
:1073300070B5094D2B7853B1084E0024336813F80B
:10734000340001F095FF2B780134A342F6D80448AD
:10735000BDE8704000F050BB542900209029002067
:107360005C29002000B585B000230390194601AACE
:1073700044F20100CDE9013300F004F805B05DF8F6
:1073800004FB00BF10B572B6FFF73CFDFFF722F912
:107390000028FBD1104B114C1149E41AE4082404D5
:1073A00044F00100FFF754FA0E4B1B68DB0700D5D1
:1073B00000BE44F002000C49FFF74AFABFF34F8FBA
:1073C0000A490B4BCA6802F4E0621343CB60BFF377
:1073D0004F8F00BFFDE700BFC0C80200E8C8020031
:1073E0001CBD0200F0ED00E028BD020000ED00E051
:1073F0000400FA05F8B52049204B0024C1F84041AB
:10740000C1F84441C1F84841C1F84C41C1F80041BC
:10741000C1F804411B6833B31948D1F80455016819
:107420001A686D1A25F07F45AA4227460DD8197CA7
:10743000DE69AD1A144419B11F74D3E905209047D1
:107440001EB133461A68AA42F1D90E490E4A0B788A
:1074500012789A4208D00D490D4A41F823404FF462
:107460008013C2F80031F8BD531CDBB2022B08BFF9
:1074700000230B70EFE700BF00100140B42A00208A
:10748000B02A0020AD2A0020AC2A0020A42A002027
:1074900000E100E02DE9F04FB34AB44913780978D0
:1074A000B34E994285B0356800F08D810133DBB26F
:1074B000022B08BF0023AF491370AF4AD1F800C0B8
:1074C00052F823200CEB020323F07F430B60002DC6
:1074D00000F0C6812B689A42C0F0C481002738466C
:1074E000BE4603E00B68934200F27081EC68C5F879
:1074F00000E0D21A1844E9693CB10CEB000323F018
:107500007F43C5E90134EF612F460D460029E9D1DB
:10751000316000254FF0010A984B9949DFF87492C9
:1075200043F0010301934FF00008002F33D0D7E957
:1075300001BE3C46FF698F4B92481A68ABEB0203D1
:1075400023F07F43834200F20481734423600020D0
:107550003268E061C4E9010001202074002A00F0D3
:10756000F6801068984208D3E2E0DEF800C0DC45FF
:1075700080F0E38072465B466046D2F81CE0A3EBE5
:10758000000BBEF1000FF0D1C4F800B0C4F81CE04D
:10759000D461002FCBD191F801E00878864519D04D
:1075A00084460CEB4C0C8B7801EBCC0C421CD0B21B
:1075B00083429CF80430087004BF00200870022B3E
:1075C000DCF8084000F08380032B75D0012B5AD0E3
:1075D0007045E5D13668B8F1000F01D1AE422CD02C
:1075E00086B3644A684B1468D3F80475DFF8A08149
:1075F000366898F800203D1B25F07F450335002AAA
:1076000000F0EB80AE422CBFA41964195E4A24F04E
:107610007F44C2F84045D2F80435DB1BE41B23F05D
:107620007F4324F07F440333A34200F2EF80002322
:1076300089F8003005B0BDE8F08FBAF1000FF6D040
:10764000002ECED1504D514A4C4C4FF400314FF4E6
:1076500080330127C2F880103C43C5F848334FF40B
:107660003C60C5F808336F60A047424BAF604FF4F1
:107670003C601E60A047464B1E70002389F8003016
:1076800005B0BDE8F08F237C002BA1D1DCF80CB055
:10769000C4F804B0DCF810E0C4F808E0DCF814200A
:1076A000E26099F80020DCF81800A061002A3FF49D
:1076B00042AF63609B463EE73368002B3FF46EAFFA
:1076C00000221A74DB69002BFBD1336063E7336857
:1076D00053B19C4260D09B4602E0944207D093464F
:1076E000DBF81C20002AF8D10023237470E7A3459F
:1076F00054D0E069D4F800E0CBF81C0000285CD03E
:107700009C46026872440260634518BF4FF001084E
:107710000023087891F801E0237459E732680023C8
:107720000120C4E90033A360E36120747AB11068DA
:107730003460C31A1360E261F7E66044C31ACEF8FE
:107740000030C4F800B0C4F81CE0D46121E7346014
:10775000EBE6A2EB0B0222F07F427245DED2AEEBEB
:1077600002032360F3E600BFAC2A0020AD2A00200C
:10777000B42A0020B02A0020A42A002040BD020024
:1077800094290020FEFF7F000010014000E100E08E
:10779000A12A0020A02A0020A3462246D3F81CC01C
:1077A000C6F800C0BCF1000F45D0D069D2F800E0A7
:1077B000CBF81C000028A4D1A6E70023087891F894
:1077C00001E0237404E70027BA46A5E631600D46C0
:1077D0009B1A0B604FF0010A9EE62449244A4FF49D
:1077E0008030C3F844034FF0010AC3F804034FF498
:1077F0000030C1F8800142F001020860C3F800A027
:107800004FF43C60904788F800A0FBE6184BD2F894
:107810000415C2F8401543F001034FF43C6098474B
:10782000124B4FF40032C3F80021002389F80030D6
:1078300005B0BDE8F08FCDE902320E4BDFF83CE039
:1078400001209860019B89F80000CEF800C04FF439
:107850003C609847D6F800C00749DDE90232A4E74A
:107860002F4656E629460027B2E700BF00E100E0B8
:1078700040BD02000010014094290020B02A0020E1
:107880002DE9F8431F4D204E204FDFF898804FF42C
:1078900080334FF400324FF001090024C6F88020F5
:1078A00047EA0907C5F848334FF43C60C5F8083388
:1078B000C5F80490B847C5F808904FF43C60C8F884
:1078C0000040B847124A134B13491C601470134B05
:1078D000134A0C700B2114701C8099704FF48012A5
:1078E000C023C6F8802186F814333260C5F80845F5
:1078F00086F81133D5F80435C8F800302046BDE8C5
:10790000F88300BF0010014000E100E040BD02002C
:10791000A12A0020B42A0020AC2A002094290020AB
:10792000AD2A0020B02A0020074B9B783BB142B122
:1079300038B10368187C10B959745A61704708202F
:1079400070470720704700BF942900202DE9F047B9
:10795000264CA37882B0002B3CD000283AD00429D2
:107960003CD94369002B35D0437C0026012B81464E
:107970000DF107000CBF8846B04617468A468DF8C1
:10798000076000F073F86378A17822789DF807000B
:107990005D1CEDB2A94208BF3546AA4222D003EBD6
:1079A000430304EBC3030121114AC3F80890197182
:1079B000D2F804256570C3E9032AC3E9058700F0FE
:1079C0007BF80C4B4FF480123046C3F8002102B014
:1079D000BDE8F087082002B0BDE8F087072002B0BC
:1079E000BDE8F08700F068F80420F0E79429002053
:1079F0000010014000E100E0F0B51A4CA37883B01C
:107A00004BB340B3436933B30026067405460DF10A
:107A100007008DF8076000F029F86378A7782178CF
:107A20009DF807005A1CD2B2974208BF32469142D5
:107A300014D003EB430304EBC30302219D601971CF
:107A4000627000F039F8084B4FF480123046C3F8EA
:107A5000002103B0F0BD082003B0F0BD00F02CF809
:107A60000420F6E79429002000E100E070B4EFF371
:107A7000108472B60D4B9A68AAB90D490D4E0125B6
:107A80009D60D1F8805035401D60C1F88060D1F80C
:107A900084505D604FF0FF33C1F88430027004B948
:107AA00062B670BC704701230370F8E7F02C002029
:107AB00000E100E0FC06FFBD094B9A687AB170B99D
:107AC00010B4EFF3108172B6064A1C6814605C684B
:107AD0005460986001B962B65DF8044B7047704716
:107AE000F02C002000E100E001F01F024B09012111
:107AF00000EB8300914000F01FB800BF01F01F02AF
:107B000001234909934000EB8100D94300F020B8DC
:107B10004B0901F01F0150F82300C84000F001009C
:107B2000704700BF50E8002F0B4640E8003C9CF037
:107B3000000FF7D11046704750E8003F43EA0102BA
:107B400040E8002C9CF0000FF6D11046704700BFB3
:107B500050E8003F03EA010240E8002C9CF0000FCF
:107B6000F6D11046704700BF50E8003F03EB01021A
:107B700040E8002C9CF0000FF6D11046704700BF83
:107B800050E8003FA3EB010240E8002C9CF0000FFE
:107B9000F6D11046704700BF012350E8002F42EA9B
:107BA000030C40E800C191F0000FF6D16046704729
:107BB000002350E800CF0CEA030240E8002191F0D6
:107BC000000FF6D160467047B8B130B4D0E9011269
:107BD000521A0468D2B2531E2160DBB242B101686E
:107BE0000A685C1E551C0D601370E3B2FF2BF6D1C2
:107BF00003680020187130BC70470E20704700BF2A
:107C0000F0B583B0044600250DF107008DF807504C
:107C1000FFF72CFFD4E900311A688A4210D9511EAF
:107C200019602168A3680F6812F8015C0A79268A36
:107C3000E068DB1BDBB29A4206FB050538BF0B711F
:107C40009DF80700FFF738FF284603B0F0BD00BFDE
:107C500030B5054683B000230DF107000C468DF8C2
:107C60000730FFF703FF2A681368591C1160E968A1
:107C70002A8A641AB4FBF2F41C709DF80700FFF71F
:107C80001BFF03B030BD00BF826842B110B504468F
:107C900043690168006998470023A36010BD7047DD
:107CA0000EB400B582B0039921B104AB01AA0193CF
:107CB00000F0B2F802B05DF804EB03B0704700BF0B
:107CC0002DE9F04F8A4683B0924516460546984600
:107CD000DDE90CB1C0F09C8053460127B3FBF6F3FD
:107CE0009E4207F10107F9D9474538BF474611F0D1
:107CF0000103AA68009302D1BBF1000F68D10124EF
:107D000003E008F1FF3806FB04F4B8F1010FF8D8DE
:107D1000BAFBF4F08642F6D9DFF8F8904FF00D0880
:107D200007E0B442B4FBF6F31CD3BAFBF3F0AA6845
:107D30001C4619F8003029680A2B04FB10AA01EB35
:107D4000020E02F1010028D0A8608EF80030D5E9BB
:107D500001329A42E5D32846FFF796FFB4FBF6F3CB
:107D6000B442E2D2009BABB1BBF1000F12D0BB45D5
:107D700010D92024AB682A68591CA960D454D5E9CD
:107D800001329A420BF1FF3B1ED2BBF1000F01D032
:107D9000BB45EFD103B0BDE8F08FA86001F80280C9
:107DA000D5E90120904204D22A6802EB000E01308E
:107DB000CAE728460193FFF767FFAA682968019B75
:107DC000501C01EB020EBFE72846FFF75DFFDCE722
:107DD0008B0717D42024BB4591D92B68511CA9606F
:107DE0009C54D5E901329A420BF1FF3B05D2BBF11D
:107DF000000F84D0BB45F0D181E72846FFF744FF50
:107E0000AA68F4E7B8F1000F0CBF30242024E2E7A1
:107E1000012769E748BD0200002900F0E8822DE94A
:107E2000F04F054685B091460C460E78DFF814A752
:107E30004FF00D0B13E0AB6828680A2E03F1010226
:107E400000EB030100F02681AA600E70D5E9013233
:107E50009A4280F011812678002E00F014810134BE
:107E6000002E00F01081252EE5D12146002711F8C3
:107E7000012B2D2A00F0E580302A00F0E6802B2A25
:107E800000F0D6802A2A00F01181A2F13006F3B268
:107E9000092B03D922E2A3F130060146084606EB7E
:107EA000860310F8012BA2F13004092C02EB4303E6
:107EB000F1D92E2A00F006814FF0000802F0FB03F2
:107EC000682B01F1010405D114F8012B02F0FB032A
:107ED000682BF9D0253A532ABDD801A353F822F0D4
:107EE00075820200577E0200577E0200577E020014
:107EF000577E0200577E0200577E0200577E020026
:107F0000577E0200577E0200577E0200577E020015
:107F1000577E0200577E0200577E0200577E020005
:107F2000577E0200577E0200577E0200577E0200F5
:107F3000577E0200577E0200577E0200577E0200E5
:107F4000577E0200577E0200577E0200577E0200D5
:107F5000577E0200577E0200577E0200577E0200C5
:107F6000577E0200577E0200577E0200577E0200B5
:107F7000577E0200577E0200577E0200577E0200A5
:107F8000577E0200577E0200577E0200577E020095
:107F9000577E0200577E0200577E0200577E020085
:107FA000577E0200577E0200577E02008D8202003B
:107FB000577E0200577E0200577E0200577E020065
:107FC000577E0200577E0200577E0200577E020055
:107FD000577E0200577E020053800200EF810200AC
:107FE000577E0200577E0200577E0200577E020035
:107FF000EF810200577E0200577E0200577E02008A
:10800000577E0200577E0200577E02006781020001
:10801000577E0200577E02000D810200577E02004B
:10802000F1800200577E0200577E02008D8202001E
:1080300047F004070C46214611F8012B2D2A7FF446
:108040001BAF47F001070C46F5E747F002070C4667
:10805000F1E7D9F800301A1DC9F800201E78AB6886
:108060000A2E00F04C822A68591CA960D654D5E922
:1080700001329A42FFF4EFAE2846FFF705FE26785C
:10808000002E7FF4ECAE2B7B002B40F0218105B05D
:10809000BDE8F08FAA6000F803B0D5E901329A423A
:1080A00080F00E81296811440132CDE6D9F8003004
:1080B0001A1DC9F8002062781E682E2A04F10200F9
:1080C0007FF4FAAE4A78A2F13003092B01464FF053
:1080D00000083FF6F3AE08EB880802EB480811F8F9
:1080E000012FA2F13003092BA8F13008F3D9E5E6FE
:1080F000D9F800301A1DC9F80020196801974346C5
:1081000000960A222846FFF7DBFDA4E6D9F80030E6
:108110001A1DC9F8002017F00107D3F8008040F0BD
:10812000EA80B8F1000F03D0404603F03DFD07465A
:10813000BE4240F25D81002E00F05A81202102E013
:10814000BE4200F05581AA682B68501CA860995463
:10815000D5E90123934206F1FF36F1D32846FFF714
:1081600093FD2021ECE7D9F80020131DC9F8003059
:10817000AB6829681768581C3022A860CA54D5E932
:108180000123934280F0F1802A68581C7821A8606E
:10819000D154D5E90123934280F0E2800F2F03D917
:1081A0003A4612090F2AFCD84FF0805606E00F2EEF
:1081B0004FEA16137FF64FAE1E46AB68B7FBF6F2DA
:1081C0001AF802802868B8F10A0F06FB127700EB54
:1081D000030103F1010267D0AA6081F80080D5E9AC
:1081E00001329A42E3D32846FFF74EFDDFE7D9F884
:1081F00000301A1DC9F80020196881EAE172A2EB6B
:10820000E172092A4FF001000BDDDFF83CC300E00A
:108210001A46ACFB02E3632A00F101004FEAD303E4
:10822000F6DC4045034638BF4346029307F002039D
:10823000002E57D00029C0F29D80780700F19A8067
:10824000002B00F09980B8F1000F40F095800029D4
:10825000C0F236817B0700F1468107F00303022B51
:1082600000F0FD80CDE9006743460A222846FFF76B
:1082700027FDF0E5AB682A68581C2521A860D15479
:10828000D5E901329A42FFF4E6ADF5E6D9F80030BF
:108290001A1DC9F80020196801974346009610225C
:1082A0002846FFF70DFDD6E5AA6000F803B0D5E932
:1082B00001329A4280F093802B68991801328BE743
:1082C0002846FFF7E1FCAB6829685A1C1944BBE556
:1082D000284605B0BDE8F04FFFF7D6BC084600269B
:1082E0002146E6E52BB1B8F1000F00F02581FB0730
:1082F000ADD40026ABE798F80020002A00F02081DA
:10830000AB684746C8F10101D5F800E00A2A01EB45
:1083100007080EEB030C03F1010054D0A8608CF8A1
:108320000020D5E90123934242D217F8012F002AF9
:10833000EAD146457FF68FAD202702E046453FF45F
:108340008AADAA682B68511CA9609F54D5E90132F7
:108350009A4206F1FF36F1D32846FFF795FCEDE788
:108360002846FFF791FCAB6818E72846FFF78CFC1E
:10837000AB6809E7013E63E7FA073FF568AF002EF7
:10838000B7D0029B9E427FF662AF2023AA68501CA2
:10839000A86028688354D5E90102824206F1FF36BD
:1083A00080F0BC80002EA4D0029A9642EED14EE717
:1083B00028460291FFF768FC17F8012F002AB8D071
:1083C000AB680299A0E7A8600EF803B0D5E90130C8
:1083D000984260D22B6803EB000C01309EE72846E0
:1083E000FFF752FCA9682B684A1C1944F4E6704751
:1083F00098F80060002E3FF42EADAB6828680A2E76
:1084000003F1010200EB030111D0AA600E70D5E95F
:10841000012393421BD218F8016F002E3FF41BADCD
:1084200028680A2E03F1010200EB0301EDD1AA60D6
:1084300000F803B0D5E901329A4239D229681144D3
:108440000132AA600E70D5E901239342E3D3284696
:10845000FFF71AFC18F8016F002ECED1FBE4B8F13B
:10846000000F7FF4FFAE002E68D0029B9E427FF685
:10847000F9AE3023AA68501CA86028688354D5E957
:108480000102824206F1FF364FD2002E56D0029AE8
:108490009642EFD1E6E62846CDE90221FFF7F4FB4C
:1084A000AB682A68581C02EB030CDDE9022135E7B2
:1084B0002846FFF7E9FBAB6829685A1C1944A4E772
:1084C000AA68531CAB602B682D209854D5E9013263
:1084D0009A42C1F10001FFF4C0AE28460391FFF7B4
:1084E000D3FB0399B9E6AA68531CAB602B682B2019
:1084F0009854D5E901329A42FFF4AFAEEDE72A680D
:10850000591CA96002F803B0D5E901239342FFF496
:10851000AAAD2846FFF7B8FBAB68A4E5284603914F
:10852000FFF7B2FB202303993CE728460391FFF7AE
:10853000ABFB30230399A8E7464688E6002691E680
:108540009046F6E648BD0200CDCCCCCCFFF73CBB54
:108550002DE9F041058ACF1C043D2F440646B7FBA8
:10856000F5F7FFF74DFB002834D0FFB24FF48073CE
:10857000013F0446C580066083802CD080460025DC
:1085800009E06379AF4203F101036371C8F80000A9
:10859000066080461FD03046FFF732FB01350028C9
:1085A000EFD194F805802768B8F1010316D03D4655
:1085B000013083422D68FBD1B8F1000F0AD00026AC
:1085C00001E03C463F68214601362846FFF740FB64
:1085D000B045F6D800242046BDE8F0812146384653
:1085E000FFF736FBF6E700BF04300121FFF7BCBA06
:1085F0002DE9F041012104460430FFF7C1FAC0B271
:1086000008B1BDE8F08194F805802568B8F1010350
:1086100014D02E46013083423668FBD1B8F1000FEA
:10862000EFD0002701E02C462D6821460137304667
:10863000FFF70EFBB845F6D8BDE8F0812146284685
:10864000BDE8F041FFF704BB2DE9F8430546C688B5
:108650004079144606FB00F2043A04EB030C1F1D9C
:10866000624538BFD41ABE428846B7FBF6F106FB16
:10867000117002D801392D68FCD1371AA74228BFE2
:1086800027469CB14FF000090430E41B28443A46C9
:1086900008EB090103F072FAA642B9442D68374687
:1086A0004FF0000028BF2746002CEDD1BDE8F8832D
:1086B0002DE9F8430546C6884079144606FB00F2CA
:1086C000043A04EB030C1F1D624538BFD41ABE42A6
:1086D0008846B7FBF6F006FB107102D801382D680A
:1086E000FCD1771AA74228BF27469CB14FF000095A
:1086F00004312944E41B3A4608EB090003F03EFA32
:10870000A642B9442D6837464FF0000128BF2746DE
:10871000002CEDD1BDE8F88341DF7047064A074BD6
:1087200010B5002414701C60BFF35F8F0449054826
:1087300000F042F8204610BDC02A0020C42A0020C4
:1087400058BD0200B82A002000B583B000230DF107
:1087500007008DF80730FFF789F9F1EE103A23F0A2
:108760009F03E1EE103ABFF35F8F0B4B4022C3F83B
:1087700084219DF80700FFF79FF903F043F828B91B
:1087800020BF40BF20BF03B05DF804FBFFF7C4FF6C
:1087900003B05DF804FB00BF00E100E08268002345
:1087A000936082681361826853618268D3608268D3
:1087B000536082681360704701600B6843604A68C9
:1087C000934204BF00234360704700BF436843B136
:1087D000026891680B4443605268934204BF0023CF
:1087E0004360704730B41F49A1F594728B1ADB10B7
:1087F00003EBD3735B10DD0052F83330984202EB89
:10880000050420D2A24218D2ED1005EBD5756D10EB
:1088100002EBC50152F83530984205D310E052F80A
:10882000333098420FD221468B1ADB1003EBD373FF
:108830005B108A4202EBC304F1D30B4830BC704793
:1088400022460C461146984204D904F108028A4295
:10885000CCD3F2E76068044B30BC002808BF184650
:10886000704700BFACBE020070BD020030B4B84B10
:108870001B78062B20D0B74B1B68062B00F081809D
:10888000B54AD2F8883043F47003C2F88830BFF399
:108890004F8FBFF36F8F4FF01023D3F80022002AC1
:1088A000C0F28681D3F80432002BC0F28181AB4B39
:1088B000AB4A1A6030BC7047AA4B1B681D07DAD15F
:1088C000A94B1B6803F0F002302A00F09B8003F0F4
:1088D000E003402B00F09680A34B1B6803F0F003ED
:1088E000302B00F0A080A04B1B6803F0F002302A70
:1088F00077D003F0E003402B73D09B4B1B6803F051
:10890000F003302B00F01481974B1B6803F0F0024A
:10891000302A52D003F0E003402B4ED0924B1B681C
:1089200003F0F003302B00F0F5808F4B1B6803F051
:10893000F003302B00F0D7808B4B1B6803F0F00363
:10894000502B7ED0884B1B6803F0F002302A23D0D6
:1089500003F0E003402B1FD0834B1B6803F0F002B1
:10896000302A03D003F0E003402B84D14FF0804342
:10897000D3F80024D20744BF6FF00102C3F80024EB
:1089800079E77A4B1B68062B7FF47AAF784A136835
:1089900043F48063136073E7764B6D4A1B6812786B
:1089A000754903F04F03062A0B607FF464AF6D4BEB
:1089B0001B6819077FF45FAFCEE7654A11784FF067
:1089C000804300220629C3F80C21C3F81021C3F804
:1089D00038257FF450AF634B1B681B077FF44BAF08
:1089E0009CE7664B5A4A1B6812786549C3F34233C9
:1089F000062A0B607FF43FAF5A4B1B6819077FF4C0
:108A00003AAF7AE75F4B524A1B6812785E49C3F36C
:108A10000423062A0B607FF42EAF524B1B681C0701
:108A20007FF429AF58E74A4B584A1B7858491160E0
:108A3000062B7FF420AF4B4B1B6818077FF41BAF4E
:108A400051E74FF08052534BD2F80414C3F820156D
:108A5000D2F80814C3F82415D2F80C14C3F828155A
:108A6000D2F81014C3F82C15D2F81414C3F830152A
:108A7000D2F81814C3F83415D2F81C14C3F84015F2
:108A8000D2F82014C3F84415D2F82414C3F84815BA
:108A9000D2F82814C3F84C15D2F82C14C3F850158A
:108AA000D2F83014C3F85415D2F83414C3F8601552
:108AB000D2F83814C3F86415D2F83C14C3F868151A
:108AC000D2F840142248C3F86C15D2F84414027846
:108AD000C3F87015062A7FF4CEAE224B1B68180728
:108AE0007FF4C9AE2EE71A4B2B4C1B782B492C4830
:108AF0002C4A0525256001250D6000243F21062B09
:108B0000046011607FF4B7AE164B1B681C077FF43E
:108B1000B2AE11E70E4B244A1B780321062B1160DD
:108B20007FF4A9AE0F4B1B681D077FF4A4AEFCE6D3
:108B30001E4A0749D368097823F080730629D36059
:108B40007FF499AE074B1B681A077FF494AEDBE6FF
:108B5000E00F00F03001001000ED00E0D422002012
:108B60000090D003E40F00F0E80F00F03401001093
:108B70003C17004058020010E40E00404402001070
:108B80003C050040240300104035014074C00740FC
:108B90000DF0ADBA00C000401056004088560040AD
:108BA0001856004014560040A0050040F0ED00E0CB
:108BB000184A0123C2F80435D2F80034002BFBD048
:108BC0004FF010231521134AC3F80012D2F80034D5
:108BD000002BFBD04FF0102315210E4AC3F80412CE
:108BE000D2F80034002BFBD000230A49C2F8043528
:108BF000D1F80034002BFBD0BFF34F8F0649074B51
:108C0000CA6802F4E0621343CB60BFF34F8F00BF2A
:108C1000FDE700BF00E0014000ED00E00400FA05C0
:108C2000044B195C4FF0A04201238B40C2F80C3575
:108C3000704700BF98C20200044B195C4FF0A0427D
:108C400001238B40C2F80835704700BF98C202006C
:108C5000C20730B41AD54FF0A0430322C3F844270B
:108C60004FF40035C3F848274FF48024C3F84C274D
:108C70004FF40021C3F850274FF48012C3F8085571
:108C8000C3F80845C3F80815C3F8082583070AD5B3
:108C90004FF0A0430C22C3F83427C3F83827C3F899
:108CA0003C27C3F8402730BC704700BF10B568B9F7
:108CB0000E4CA368012262703BB1D3E9002300206F
:108CC000A2609847A368002BF7D110BD0128FCD102
:108CD000064C2369A070002BF7D0D3E900230120B4
:108CE000226198472369002BF7D110BDC82A0020C4
:108CF00070B910B5074CA368012262703BB1D3E98B
:108D000000230020A2609847A368002BF7D110BD74
:108D1000704700BFC82A002030B5012883B01DD09D
:108D2000B0B1032812D1224C00F0C6F800230DF197
:108D300007008DF80730FEF799FEE368013BE3601A
:108D4000E5686DB39DF80700FEF7B6FE03B030BDD1
:108D5000184B0122C3F8802003B030BD144C00230F
:108D60000DF107008DF80730FEF780FE237853B130
:108D7000E3689DF8070001330122E360A270FEF76B
:108D80009BFE03B030BD0C486360A3602361E360C9
:108D900000F086F802F036FD30B101232370E7E7DA
:108DA00000F09CF8A570CDE700F086F8F5E700BF6D
:108DB000C82A002000E100E0AD8C020030B585B08B
:108DC000047845688DF80040D0E90240064A074B18
:108DD000039053F8213001958DF8084052F8211086
:108DE0006846984705B030BDDC2A0020E02A002004
:108DF00030B585B0047845688DF80040D0E9024070
:108E0000064A074B039053F8213001958DF808402E
:108E100052F821106846984705B030BDDC2A002082
:108E2000E02A0020F0B5194B0678194D0C6991F82D
:108E30001DE045F826408446164803F806E040F851
:108E400026200C4617460FCC89B06D460FC594E816
:108E50000F0085E80F000496BEF1000F0AD0002F26
:108E60000D4A69460CF1040008BF3A4600F0FCFFC9
:108E700009B0F0BD002F094A69460CF10C0008BF8B
:108E80003A4600F0C7FD09B0F0BD00BFFC2C002041
:108E9000DC2A0020E02A0020BD8D0200F18D0200B6
:108EA000044A137923B90121106091801846704754
:108EB00085207047E42A0020074B1A68D20704D4A3
:108EC000C021012283F800131A604FF08043012271
:108ED000C3F81825704700BF00E100E0044B0122F1
:108EE0001A604FF08042D2F81834DB03FBD470478D
:108EF0000C00004010B5154B1A6882B062B1002119
:108F0000134A19601B68507900934FF08041012388
:108F1000009CC1F80833A8B10E4B1A6882B1002238
:108F20001A601B6801934FF080420221084B0198A0
:108F3000C2F808131B68012002B0BDE810401847B2
:108F400002B010BD116853718847E5E70001004089
:108F5000E42A002004010040F0B5204C94F8585059
:108F600083B0002D36D14FF0FF334FF0FF364FF076
:108F7000FF372946042204F15400C4E90033C4E950
:108F80000233C4E90433C4E90633C4E90833C4E94D
:108F90000A332365C4E90C67C4E90E67C4E91067A6
:108FA000C4E9126702F0F8FD0D4A0E4B0E491D6030
:108FB000C02082F80603402010601B6801930198CE
:108FC0004FF000430122284684F85820C1F80433AA
:108FD00003B0F0BD082003B0F0BD00BFF02A0020B0
:108FE00000E100E07C61004000600040034B93F82A
:108FF0005800003018BF0120704700BFF02A002041
:10900000F0B5694B1C1894F93050002D63DA8E7856
:10901000C6F340069646002E57D01D68013500F075
:10902000B6800124082553F82470013756D004F186
:10903000010C53F82C7001374FD0A71CAF4242D21D
:1090400053F82720013200F0A08004F1030CAC4556
:1090500039D253F82C7001373FD004F1040CAC45E1
:1090600031D253F82C70013737D004F1050CAC45E0
:1090700029D253F82C7001372FD004F1060CAC45DF
:1090800021D253F82C70013727D004F1070CAC45DE
:1090900019D253F82C7001371FD004F1080CAC45DD
:1090A00011D253F82C70013717D004F1090CAC45DC
:1090B00009D253F82C7001370FD00A34AC4202D2D7
:1090C000DC6A01345FD00420F0BD1D6A013564D034
:1090D00009240C25A7E70820F0BD64461F1865B2D7
:1090E00043F824E087F8305016B91C4484F848004F
:1090F0008A78540714D4D6073BD44C784FF0A04656
:1091000000F5E072A40046F82240284EC40800F0A2
:10911000070C375D012202FA0CF23A4332558A7885
:10912000097812F002021AD0AB0003F1804303F574
:10913000C0430202D3F8100520F4473020F44070F9
:10914000C3F810050904D3F8100501F4403102F406
:10915000F8520A430243C3F810250020F0BD083D31
:109160002B44104693F8502042EA811183F85010A6
:10917000F0BD820002F1A042D2F8004724F00204C0
:10918000C2F80047C1E70B24A8E73C46A6E7002544
:10919000C3F800E084F83050AAE7082684F830606D
:1091A0001A6235463446A0E7F02A0020442B0020FE
:1091B00070B42D4C251883B095F93030072B1CDD89
:1091C000234493F848309B09032B40D0012B14BF54
:1091D0004FF440314FF40031800000F1A040D0F84E
:1091E000002722F44032C0F80027D0F800370B43A4
:1091F000C0F8003703B070BC7047DAB2072AF9D85C
:10920000980000F1804000F5C04003F14002920058
:10921000D0F8106592B202F1804202F5C04246F0E9
:109220000106C0F810650020106012680192019AD2
:109230000029DFD095F9302054F82220002AD9D017
:1092400001220A4902FA03F3C1F80433D2E74FF0CE
:10925000A043D3F81035C34013F0010F0CBF4FF4F7
:1092600000314FF44031B7E7F02A002000600040A1
:10927000164B034493F93030072B0DDD800000F1CD
:10928000A040D0F8003723F44033C0F80037D0F8BE
:109290000037C0F800377047DAB2072A14D810B484
:1092A0009A0002F1804202F5C042094CD2F8100542
:1092B000012120F0010001FA03F3C2F81005C4F8FF
:1092C00008335DF8044B7047704700BFF02A002058
:1092D000006000404FF0A043D3F8103523FA00F0AF
:1092E00000F00100704700BF2DE9F04186B0002377
:1092F000BD4A01931168012900F0C4811E46BB4B91
:109300001A68012A00F0B081B94B1A68012A00F0EE
:109310009D81B84B1A68012A00F08A81B64B1A6801
:10932000012A00F07781B54B1A68012A00F04E81BE
:10933000B34B1A68012A00F03B81B24B1A68012A2C
:1093400008D0B14B1A68012A00F0A881EEB906B026
:10935000BDE8F081AD4AD2F804231206F1D500220F
:109360001A6019680491603319680498012946F05D
:1093700080060AD11A601B6805934FF0A043059A36
:10938000D3F81035019346F00046A14F0024012583
:10939000A30003F180432E4203F5C0434FEA450585
:1093A0000BD0D3F8100557F82420D3F81015C0F3CC
:1093B0000420C1F3014102B190470134082CE7D1E8
:1093C000002EC4DA00224FF0FF33CDE90223904C87
:1093D000012502AE94F950104F1C37D0C9B221F0CC
:1093E000C00006ABC2089F1801F0070317F80CCCA9
:1093F00005FA03F31CEA030F28D004EB000C8909DB
:109400009CF930C054F82C80B8F1000F00F09F8117
:10941000032900F09F81820002F1A04217F8147C1A
:10942000D2F800C71F40CCF3014C0BD0BCF1020FA7
:109430000CD1032900F0C5810027B8F1000F06D038
:10944000C04704E0BCF1030F00F0A981002794F9A4
:109450005110481C31D0C9B221F0C00006AB4FEA10
:10946000D00E03EB0E0C01F007031CF80C2C05FAD0
:1094700003F31A4221D02218890992F9302054F8B6
:109480002220002A00F08181032900F081814FEA27
:10949000800E0EF1A0481CF814ECD8F800C71EEAA4
:1094A000030FCCF3014C00F03A81BCF1020F04D160
:1094B000032900F0898102B1904794F952104A1CA7
:1094C00031D0C9B221F0C00006AB4FEAD00E03EB99
:1094D0000E0C01F007031CF80C2C05FA03F31A42DA
:1094E00021D02218890992F9302054F82220002A2C
:1094F00000F04181032900F041814FEA800E0EF116
:10950000A0481CF814ECD8F800C71EEA030FCCF3EF
:10951000014C00F0EC80BCF1020F04D1032900F0F3
:10952000568102B1904794F953104B1C31D0C9B207
:1095300021F0C00006AB4FEAD00E03EB0E0C01F099
:1095400007031CF80C2C05FA03F31A4221D0221849
:10955000890992F9302054F82220002A00F0018174
:10956000032900F001814FEA800E0EF1A0481CF89B
:1095700014ECD8F800C71EEA030FCCF3014C00F03E
:109580009B80BCF1020F04D1032900F0238102B1BA
:109590009047002F3FF4DBAE4FF0A043019AD3F881
:1095A00010359A423FF4D3AE029A0193039211E729
:1095B000164AD2F8042351067FF5BFAE00221A6086
:1095C0001B680493049B46F04006B6E60F4AD2F8A7
:1095D000042390067FF5ACAE00221A601B6804934A
:1095E000049B46F02006A3E60061004004610040B1
:1095F000086100400C6100401061004014610040AF
:10960000186100401C6100407C6100400060004027
:10961000F02A0020714AD2F80423D4067FF583AEE5
:1096200000221A601B680493049B46F010067AE639
:109630006A4AD2F8042315077FF570AE00221A603B
:109640001B680493049B46F0080667E6634AD2F859
:10965000042357077FF55DAE00221A601B68049350
:10966000049B46F0040654E65C4AD2F804239207B1
:109670007FF54AAE00221A601B680493049B46F0F3
:10968000020641E65549D1F8046316F001063FF49D
:1096900036AE136013680493049B30E600221A6010
:1096A0001B6805934FF0A043059AD3F8103501933A
:1096B000002E3FF487AE66E6BCF1030F7FF469AF7E
:1096C00003297FF464AF4FF4003CD8F8003723F44B
:1096D0004033C8F80037D8F8003743EA0C03C8F81D
:1096E0000037002A3FF458AF0137FFB250E7BCF112
:1096F000030F7FF418AF03297FF413AF4FF4003C3E
:10970000D8F8003723F44033C8F80037D8F80037CA
:10971000013743EA0C03FFB2C8F8003701E7BCF198
:10972000030F7FF4CAAE03297FF4C5AE4FF4003CAB
:10973000D8F8003723F44033C8F80037D8F800379A
:10974000013743EA0C03FFB2C8F80037B3E6032938
:109750007FF47CAE16F802C04CEA030C06F802C097
:1097600059E603297FF415AF16F80E8048EA03087E
:1097700006F80E80F7E603297FF4D5AE16F80E80C2
:1097800048EA030806F80E80B7E603297FF495AE91
:1097900016F80E8048EA030806F80E8077E60329DB
:1097A0007FF44BAE4FF40037D2F8003723F4403348
:1097B000C2F80037D2F800373B43C2F80037012720
:1097C0003BE64FF44037EFE74FF4403CB0E74FF44F
:1097D000403C95E74FF4403C77E700BF0060004015
:1097E000014B1B68184700BF4C2B0020114B9842BF
:1097F0001DD130B583B000230DF107008DF807307F
:109800000D46FEF733F90C4B1C794CB901229DF83B
:1098100007001D601A71FEF74FF9204603B030BDF6
:109820009DF80700FEF748F9112003B030BD002075
:10983000704700BF002000404C2B0020034B984293
:1098400003D1034B00221A601A71704700200040B8
:109850004C2B002030B56D4AD2F8043399058BB0FB
:1098600066D5D2F82431002B62D00023C2F824310F
:10987000D2F8243103934FF40171654B0398C2F879
:10988000081393F8291009B9012151605F49022298
:109890008DF81820D1F88024C1F880249869D968FF
:1098A00009920022CDE90710C3E90622D3E900148A
:1098B00006A8A047554AD2F81C31C3B1544B186AC8
:1098C0005969884269D293F8280000F0FF04002803
:1098D00063D1C2F81C41D2F81C11029102999C6814
:1098E000186A196A205C01311962C2F81C05474ADE
:1098F000D2F84431D3B10021454BC2F84411D2F81B
:10990000440193F829100090009800295AD19A69CF
:1099100062B10022586AD9689A610122CDE9071024
:109920008DF8182006A8D3E9001290470BB030BD7F
:10993000364AD2F804335B07BCD5D2F80831002B85
:10994000B8D0334B996900293FD00021C2F80811E3
:10995000D2F8081104910499D868596AD2F81825E8
:1099600042545A6A996901325A625A6A8A42A1D1AA
:10997000DA691968002A31D0D8685D6A1C699A6171
:10998000079000220120DC60DA615A628DF818002D
:1099900008955B6806A898478CE71C4A0020C2F827
:1099A0001C01D2F81C210192019A00299FD09A68CB
:1099B0008DF8180008915861079206A8D3E90012A3
:1099C000904794E701211160A1E7C2F80811D2F88D
:1099D000080105900598D2F81825C6E793F82920C4
:1099E00012B90A4A01205060084A4FF40170C2F8C7
:1099F0000803586ADA6808900024012007928DF85D
:109A000018005A689C6106A8904753E70020004060
:109A1000542B00202DE9F041DFF8888107792C26AE
:109A200006FB078682B096F82A30002B40F085802E
:109A30000C460546574900681646FFF7D7FE002832
:109A400077D12368591C0CD001224FF0A04102FAB3
:109A500003F3C1F80835236803F5E073032241F8E6
:109A6000232063685A1C06D003F5E0734FF0A04230
:109A7000002142F823102B68A269C3F82425217D18
:109A8000637D2A680B43C2F86C35D4E900122B6859
:109A9000C3F81425C3F80C15237D012B57D02C23B4
:109AA00003FB07F308EB03025660226948F8032022
:109AB00066B32A68237F384C0021C2F81C11D2F803
:109AC0001C2100922A68009EC2F84411D2F8441169
:109AD0002A6801910199C2F804432A68120B51B215
:109AE0005B010029DBB22CDB01F1604101F5614132
:109AF00081F800332B68294C1B0B5AB2520903F032
:109B00001F03012101FA03F344F822302C232C68AF
:109B100003FB0783002204250121C4F8005583F8C4
:109B20002A10C3E9062283F829205A6102B0BDE851
:109B3000F081112002B0BDE8F081082002B0BDE83C
:109B4000F081174902F00F0211440B76D2E7A368A7
:109B5000591C06D003F5E0734FF0A042002142F8F3
:109B60002310E3685A1C0DD001224FF0A04102FAE5
:109B700003F3C1F80835E36803F5E073032241F805
:109B80002320E3682A68A168C2F80835C2F81015D6
:109B900085E700BF559802008000020000E100E068
:109BA000FCEC00E0542B0020F8B52F4D047902683E
:109BB0002C2303FB045300215B68C2F8001583B11A
:109BC00003682A4AC3F808230368294E1B0B5AB2BC
:109BD0005209203203F01F03012101FA03F346F872
:109BE000223003684FF0FF32D3F80CC5D3F8147558
:109BF000D3F80815D3F81065C3F81425C3F80C255D
:109C000003689445C3F80825C3F8102506D00CF561
:109C1000E07C4FF0A043022243F82C207B1C06D0AE
:109C200007F5E0774FF0A043022243F82720721C8B
:109C300006D006F5E0764FF0A043022243F8262036
:109C40004B1C06D001F5E0714FF0A043022243F80F
:109C500021200068FFF7F2FD2C2303FB04540023AE
:109C600084F82A306360F8BD542B0020840202007F
:109C700000E100E02DE9F041314E05792C2303FB92
:109C800005630446586984B000284CD11862996075
:109C900083F828005A612268C2F81C01D2F81C110E
:109CA000226802910121029F91602268D3F808C0C6
:109CB000C2F81C01D2F81C11019101991F6A196A9E
:109CC0001CF8077001311962C2F81C755A6812B18C
:109CD00004B0BDE8F0811A6A5F69216897421BD918
:109CE000864602E093F828200ABBD1F81C21002AFE
:109CF000F8D0C1F81CE1D1F81C210392039AD3F8E3
:109D000020801A6A1CF8088001321A62C1F81C858A
:109D10001A6ABA42E9D32168D1F81C31002BFBD072
:109D20000123CB6004E0112004B0BDE8F0810F20D6
:109D30002C2303FB056500236B6104B0BDE8F081B3
:109D4000542B0020F0B5464BD3F8242189B0002ACB
:109D500055D00021C3F82411D3F824210292022205
:109D60008DF81020029AD3F880043E4AC3F880048C
:109D70000790D3F83C05D3680690C2E90611059315
:109D80001168536804A89847354BD3F844214AB169
:109D90000021344AC3F84411D3F844019169019079
:109DA0000198D9B92E4BD3F82021AAB10021C3F8CC
:109DB0002011D3F820012B4A00900098506958B127
:109DC000D3F84C05936806908DF8101051610593F7
:109DD00004A8D2E90013984709B0F0BDD3F83C3588
:109DE000D168069300240025012305918DF81030D9
:109DF000C2E90645D2E9001304A89847D2E7D3F890
:109E000010110029C0D0C3F81021D3F81011154843
:109E1000039103998169D3F83C458C42B4D1C5695B
:109E2000C768D0E900168DB1D3F800C285612CF067
:109E30002005C261C3F800520369C3600122CDE965
:109E400005748DF8102004A8B0479DE701238561B3
:109E5000CDE905748DF8103004A8B04794E700BF31
:109E600000200040802B00202DE9F0430779674E49
:109E70004FEAC70808EB070306EB830385B093F8A6
:109E80002030002B40F096800D4604466049006863
:109E90009146FFF7ABFC002840F088802B68591CE6
:109EA0000CD001224FF0A04102FA03F3C1F80835AB
:109EB0002B6803F5E073032241F823206B685A1CDA
:109EC00006D003F5E0734FF0A042002142F82310C2
:109ED0002368AA69C3F82425297D6A7D23680A437B
:109EE000C3F86C25D5E900312268C2F80C35C2F8F8
:109EF00014152B7D012B67D008EB07029200B318D5
:109F0000C3F804902B69B350B9F1000F3DD021681C
:109F10002B7F404D0022C1F81021D1F81011009183
:109F20002168DDF800C0C1F82021D1F8201101918D
:109F30002168DDF804C0C1F82421D1F82411029170
:109F40002168DDF808C0C1F84421D1F84411226825
:109F500003910399C2F804532268120B51B25B01BA
:109F60000029DBB22ADB01F1604101F5614181F892
:109F700000332368284D1B0B5AB2520903F01F030C
:109F8000012101FA03F345F822304744226806EB29
:109F90008706002301240821C2F8001586F8204016
:109FA000C6E90633736105B0BDE8F083112005B042
:109FB000BDE8F083082005B0BDE8F083174902F042
:109FC0000F0211440B76D4E7AB68591C06D003F599
:109FD000E0734FF0A042002142F82310EB685A1CB6
:109FE0000DD001224FF0A04102FA03F3C1F8083569
:109FF000EB6803F5E073032241F82320EB68226845
:10A00000A968C2F80835C2F8101575E7802B002042
:10A01000459D02001003020000E100E0FCEC00E0BE
:10A02000F8B506792F4C0268F500AB1904EB8303F1
:10A0300000215B68C2F8001583B103682A4AC3F89F
:10A0400008230368294F1B0B5AB25209203203F030
:10A050001F03012101FA03F347F8223003684FF090
:10A06000FF32D3F80CE5D3F814C5D3F80815D3F8AC
:10A070001075C3F80C25C3F8142503689645C3F87A
:10A080000825C3F8102506D00EF5E07E4FF0A0435A
:10A09000022243F82E20BCF1FF3F06D00CF5E07CF5
:10A0A0004FF0A043022243F82C207A1C06D007F57B
:10A0B000E0774FF0A043022243F827204B1C06D044
:10A0C00001F5E0714FF0A043022243F8212035440E
:10A0D00004EB85040068FFF7B1FB002384F820300F
:10A0E0006360F8BD802B00201003020000E100E057
:10A0F00001F06043B3F1005F2BD1F0B40679254F36
:10A100004FEAC60C0CEB060407EB840482B06369CB
:10A11000002B37D16261A1600568C5F82031D5F800
:10A12000202105680192019AC5F85831D5F85821C7
:10A1300000920568009A6269C5F84415C5F848257B
:10A14000026801219160626832B1184602B0F0BC29
:10A150007047102318467047026800E0BBB9D2F878
:10A160002011D2F858310029F8D0002B18BF0F2346
:10A170000CEB060207EB820200211846516102B087
:10A18000F0BC70471123184602B0F0BC70470F2393
:10A19000EEE700BF802B002072DF704773DF70474F
:10A1A00076DF70477ADF70477CDF70477FDF70476C
:10A1B0008FDF7047B1DF7047FDF7D4B808B503787B
:10A1C00003B108BD054B3B211888FFF7E9FF0028C4
:10A1D000F7D0BDE80840FDF7C5B800BFF222002067
:10A1E0000D2801D0FDF7BEB8104B1148C01AC008A9
:10A1F000000410B540F003000C460E49FCF728FBA4
:10A200000D4B0E491888224601F04EFA30F0080234
:10A2100007D043F20202904203D043F2014290423F
:10A2200000D110BDBDE81040FDF79CB8C0C80200C9
:10A23000E8C80200E4C20200F2220020F82B00204D
:10A2400010B50C4B0C4CE41AE408240444F003044D
:10A2500002203AB1FEF7E4FC20460849BDE8104070
:10A26000FCF7F6BAFEF7E8FC20460549BDE81040C9
:10A27000FCF7EEBAC0C80200E8C8020000C3020042
:10A2800014C30200FDF76EB810B50388103B82B00E
:10A290000446462B44D8DFE803F06324437F43435E
:10A2A00043434343434343434343434F4343434372
:10A2B000434343434343434343434343434343436E
:10A2C000434343434345434343434343434343435C
:10A2D0004343434343434343434343435943434338
:10A2E0004500374B37483849C01AC008000440F0D1
:10A2F0000300FCF7ADFA0120FEF79EFC334B4FF64E
:10A30000FF721A80FDF714F8002855D1304B012157
:10A310001878FFF743FF00284BD10020FEF780FCA0
:10A3200002B010BD80881321FFF73AFF0028F7D054
:10A33000FDF718F802B010BD00238088ADF8043096
:10A3400001A9FFF735FF0028EAD0F1E71F4A0023F3
:10A35000108819461A46FFF72DFF0028E0D0E7E7DE
:10A36000174B18481B49C01AC008000440F00300EE
:10A37000FCF76EFA0120FEF753FC0020FEF75CFCB0
:10A38000124BA1881448198001F084F870B9FCF7C9
:10A39000B9FF0028C4D0CBE70C4A002310888521E0
:10A3A0001A46FFF703FF0028BAD0C1E7FCF7DAFF2F
:10A3B000EDE7FCF7D7FFB0E7FCF7D4FFA6E700BF57
:10A3C000C0C80200E8C80200D4C20200F222002085
:10A3D000F0220020C8C20200102C002000B54FF46B
:10A3E0000041A7B00020FCF793F8002840F0E2807D
:10A3F000FCF77EF80120FEF72BFCFDF741FA002860
:10A4000040F0088140F2666201218448FCF722FF97
:10A41000002840F0FC80FEF781F9002840F0F4802D
:10A4200001F064F9002840F0EC80002317A9012016
:10A43000179301F037FA002840F0E08017A801F0E8
:10A44000EFFA002840F0D780112375488DF82030AE
:10A4500001F0AAFB724982B208A8FFF7A5FE002806
:10A4600040F0C6800822002117A801F095FB6D4B33
:10A47000179317A84FF0C8731893FFF793FE00289F
:10A4800040F0B3800021684800F000FF002840F051
:10A49000A9800022654B6648089217A9179300F01F
:10A4A000E7FF002840F09B80624B6348089308A9AF
:10A4B00001F092F8002840F08F805F4B5F4C9B7C4E
:10A4C0008DF806303C2241F22353002108A8ADF854
:10A4D000043001F061FB022040F201633C220021C4
:10A4E0008DF8200017A8ADF8223001F055FB224668
:10A4F000012501AB08A852F8041BADF86C501C9361
:10A5000000F02AF9002864D1A1684D4A17A800F08C
:10A5100023F900285AD11822002102A801F03CFB9F
:10A52000012000234FF4807540248DF8080002AA12
:10A5300042494448ADF814300393ADF81C500494DC
:10A54000FFF72AFE00283ED11C22002117A801F0A7
:10A5500023FB00233C4A1793ADF86A308DF86C302A
:10A560003A4B4FF420254FF42034032117A8CDE9AE
:10A5700018548DF86810CDE91C2300F02FFCF8B9B1
:10A58000334B34483449C01AC008000440F003007B
:10A59000FCF75EF92B4B01211878FFF7FFFD60B93E
:10A5A0000020FEF73DFBFCF715F80028FBD1FEF775
:10A5B000CBF8F8E7FCF7D6FE1AE7FCF7D3FEEFE797
:10A5C000FCF7D0FEDCE7FCF7CDFEBDE7FCF7CAFEEA
:10A5D000A1E7FCF7C7FE97E7FCF7C4FE6DE7FCF7C1
:10A5E000C1FE61E7FCF7BEFE53E7FCF7BBFE49E79F
:10A5F000FCF7B8FE36E7FCF7B5FE25E7FCF7B2FE40
:10A600001CE7FCF7AFFE10E7FCF7ACFE08E7FCF731
:10A61000A9FE00E7FCF7A6FEF4E600BFD822002062
:10A6200028C302005000A000E42B0020B9A10200C2
:10A63000102C002041A20200F82B0020E022002074
:10A64000EC220020F0220020BDA1020085A2020021
:10A65000C0C80200E8C8020038C302006DDF7047BE
:10A6600079DF70477DDF704764DF70472DE9F04F79
:10A6700087B00488119DDDF840A02E880396BDF8B0
:10A6800048600196002C56D04FF000091E460292F9
:10A69000884607464C4603E03A88013494422BDA58
:10A6A000D8F8003053F82400059000220DF1130172
:10A6B00005A8FFF7D9FF834650BB9DF81320B2428F
:10A6C000EAD12A889119B9F1000F25D0019B8B425C
:10A6D00037DB52440DF1130105A84FF00109FFF7D4
:10A6E000C3FF002833D129889DF813200A442A800B
:10A6F0003A8801349442D3DBB9F1000F1BD02A8889
:10A70000039B013AD21A92B2FF2A1AD80AF8032000
:10A71000584607B0BDE8F08F019B023101328B42F1
:10A7200092B20EDB029B2A800AF802302A8801329C
:10A7300092B22A80CDE74FF0000B584607B0BDE833
:10A74000F08F4FF00C0B584607B0BDE8F08F8346F2
:10A75000584607B0BDE8F08F2DE9F0470023178871
:10A76000138090F82D3088B0144605460E46002B15
:10A7700040F0FF80AA78002A40F0F480E978A1B187
:10A78000DA1CBA4200F2F1800222F254238801332B
:10A790009BB201222380F254238813449BB223806E
:10A7A000F154238813449BB223806A68AAB1D91C50
:10A7B000B94200F2DA80022192F90020F154238894
:10A7C00001339BB20A212380F154238801339BB2C9
:10A7D0002380F2542388013323802B89002B40F0FF
:10A7E000F2802B8A002B40F027812B8B002B40F02E
:10A7F0008F812B6A002B44D02088821DBA4200F240
:10A80000B4801A88052A40F27F816FF4486802EB11
:10A81000080189B24FF27D3C614540F2758159884B
:10A82000052940F271816FF4486E8E441FFA8EFE46
:10A83000E64540F269814FF6FF7C624504D06145F0
:10A8400002D08A4200F2608105223254228801320D
:10A8500092B212212280B1542288013292B2228017
:10A860001988B1543244090A51702288023292B2D6
:10A8700022805B88B35432441B0A5370238802330E
:10A8800023806B6A002B2FD09988B4F800C0881CF5
:10A890000CF102020244BA4267D8FE2865D803319F
:10A8A00006F80C102288013292B2FF212280B154A6
:10A8B0002288013292B222801988B1543244090AA6
:10A8C00051702088023080B220809A8862B19968E5
:10A8D0000593002900F01881304401F04FF9059BE1
:10A8E0009A8823881344238095F82C30002B40F05D
:10A8F000BF802878002839D02B88012B00F00481F4
:10A9000023889A1CBA4230D8012804D169780231D0
:10A9100019448F4229D3023FFF1ABFB2B01806A9CB
:10A92000ADF81870FFF79EFE00BB2A78BDF818300E
:10A93000022A00F00F8169789942C0F006819F4297
:10A94000C0F003810921FE2B0FD822885D1CB5546D
:10A950002288013292B22280B154228801321344FB
:10A96000238003E00433BB4249D90C2008B0BDE882
:10A97000F087082FF9D906A8FFF770FE0028F5D157
:10A9800023880822F254238801339BB21B222380A0
:10A99000F2542088013080B22080062230440DF12C
:10A9A000190101F0EBF823889DF8182006339BB2BB
:10A9B00012F0FE0218BF01222380F25423880133D3
:10A9C0009BB22380D6E605F1080805F10C090223A5
:10A9D000CDE901470096404649461A46FFF746FE34
:10A9E0000028C3D1CDE901470096494640461023CF
:10A9F0000622FFF73BFE00283FF4F3AEB6E706A8B9
:10AA0000FFF72EFE0028B1D12388BDF818200321BE
:10AA1000F154238801339BB219212380F1542388F8
:10AA200001339BB2F1182380F254120A4A70238832
:10AA300002339BB22380A1E605F1100805F1140949
:10AA4000CDE9014700964046494602230322FFF71D
:10AA50000DFE00288AD1CDE90147009649464046BF
:10AA600010230722FFF702FE00283FF4BEAE7DE769
:10AA7000D5F82880B8F1000F46D0B8F8042002328B
:10AA8000FE2A3FF672AF23884FF000094FF0160AF6
:10AA900008E0AA6A02EB8808B8F804200232FE2A0D
:10AAA0003FF663AF0132F254238801339BB2238017
:10AAB00006F803A0238801339BB22380B8F8002056
:10AAC000F2543344120A5A70238802339BB2238013
:10AAD000B8F80410F0180A4659B1D8F808301946E9
:10AAE00093B101F04BF8B8F80420238813449BB2CB
:10AAF000238009F1010995F82C205FFA89F94A456C
:10AB000009EB4908C5D8F4E6072008B0BDE8F0878E
:10AB100005F1180805F11C09CDE9014700964046EA
:10AB2000494602231422FFF7A1FD00287FF41EAF3F
:10AB3000CDE9014700964946404610231522FFF70C
:10AB400095FD00283FF455AE10E7012A06D03B469C
:10AB50000821F8E69F42BFF4F5AEF8E78F42F6D33E
:10AB60000B460821EFE600BF75DF704776DF7047C0
:10AB70007ADF70477BDF704770B51B4C238885B246
:10AB8000AB4282B011D1194E217A327B91420ED361
:10AB9000337C00222272DBB9736933B10022ADF835
:10ABA00006508DF8042001A8984702B070BD1846E1
:10ABB00004F10A01FFF7D8FF28B11128F5D0B369D5
:10ABC000002BF1D1F1E7237A0133237202B070BD7B
:10ABD0003B212846FFF7CAFF30F00803DCD0B369F9
:10ABE000002BD9D09847D7E7382C00201C2C002008
:10ABF0002DE9F0410388112B82B0044675D00BD9A2
:10AC0000122B49D0502B04D1714EC288F3899A423D
:10AC10007ED002B0BDE8F081102BFAD1C37B012BAE
:10AC2000F7D16C4D29884FF6FF72914240F0B28007
:10AC3000694F8288664E2A8003CFC5F80A00C5F89E
:10AC40000E10618A6F89F0894FF0000C8F4285F8F1
:10AC500008C000F29280AF898F42C0F08E80E989EF
:10AC6000A78A40F2F314A14294BF4C1A0C1BBC42B9
:10AC700000F2838001F2F311B9427ED36B72002897
:10AC8000C7D17369002BC4D00121ADF806208DF81F
:10AC9000041001A89847BCE74E4D82882B88934248
:10ACA000B7D141896889884258D8A889884255D344
:10ACB000E989A48940F2F310814294BF481A081A26
:10ACC000A0424BD801F2F311A14247D3404A526946
:10ACD0004FF480712981002A9BD00121ADF8063004
:10ACE0008DF8041001A8904793E73A4D82882B888D
:10ACF0009A428ED16868FCF77FFE18B1344B9B698D
:10AD000003B198474FF6FF732B8002B0BDE8F08186
:10AD1000038A022B7FF47DAF2E4DB0F804802F887C
:10AD200047457FF476AF123000F028F9002839D07B
:10AD30006B7A002B3DD1D6E901132C7A68683A462C
:10AD4000002C18BF1946FCF701FE00283FF461AF44
:10AD5000B369002B3FF45DAF98475AE71C4E2C7A3D
:10AD60006868D6E90113002C18BF194600236B72DE
:10AD7000FCF7ECFD0028EBD14BE700236B720028B9
:10AD80007FF447AF68687168FCF7E0FD00283FF486
:10AD900040AFDDE70E4B9B69002B3FF43AAF042038
:10ADA000984736E76868FCF727FE00283FF431AF84
:10ADB000CEE7736900222A72002B3FF42AAF0122EA
:10ADC000ADF806808DF8042001A8984721E700BF60
:10ADD0001C2C0020382C00204C2C002070B3F8B51F
:10ADE000054606460FCD164F3C460FC4844695E8EF
:10ADF0000700144D3D6084E80700BCF1000F17D038
:10AE00006046FFF7B5FE90B933681868596803C506
:10AE10000D4B0E490E4A18464FF6FF7440F8041FBA
:10AE20001C800021FCF780FD002818BF0320F8BD1E
:10AE30002846FFF79FFE0028EAD0F8BD0E20704795
:10AE40001C2C00204C2C0020382C0020542C0020DE
:10AE500079AB02002DE9F04703888788112B98B061
:10AE600007D01A2B064650D0102B09D018B0BDE8D9
:10AE7000F08739463948FCF741FE18B0BDE8F08745
:10AE8000374A9368DB43009351686846FCF760FEDD
:10AE9000009B0193019B83B300242546294601A80A
:10AEA000FCF736FE28B118AB03EB4403013423F85A
:10AEB000285C0135142DF1D10D940DF1340CBCE852
:10AEC0000F0002AD0FC5BCE80F000FC59CE80700DE
:10AED00085E807008CB10DF10A08DFF898A008EBAF
:10AEE000440438F8029F1F4D284649460435FCF7B4
:10AEF00005FEAA45F8D1A045F3D1132F14D904209B
:10AF0000FCF730FA18B0BDE8F087047A1648240937
:10AF1000012C394618D9FCF7E7FD022C39461348B5
:10AF200016D0FCF7E1FDA1E739460C48FCF7DCFD43
:10AF300039460C48FCF7D8FDF37B012B96D03946F7
:10AF40000B48FCF7D1FD91E7FCF7D8FD07483946DF
:10AF5000FCF7D4FD18B0BDE8F08700BF7C2C0020C2
:10AF6000742C0020782C0020842C0020882C0020B9
:10AF7000802C0020EC2C0020AADF7047007800F025
:10AF800001007047F0B58B7891B0002B0C46098812
:10AF9000ADF80C1008BF012305461646684603228B
:10AFA00000218DF80E3000F0F7FD637C0022013B9C
:10AFB0008DF80020042B09D8DFE813F0CF00D30070
:10AFC000D700DB00050022238DF80030A37C00228F
:10AFD000013B8DF80120042B09D8DFE813F0CE00E7
:10AFE000D200D600BA00050022238DF801309DF86A
:10AFF0000230E77B227D207C217B67F3C303002A9C
:10B0000060F3041314BF0222012261F3000362F310
:10B01000420309A81C2200218DF8023000F0BCFD7B
:10B02000637B13F0300F73D1627BA37B8DF82420F8
:10B030000021142204A88DF8253000F0ADFDA3688E
:10B04000A288CDF814D003A90491ADF81C201BB13F
:10B05000E2880893ADF81820A369002B36D001AF21
:10B0600003220021384600F097FDA2691388ADF84D
:10B070002C305388ADF82E3051680D97137B0A9110
:10B08000013B00218DF80410042B2DD8DFE803F0DC
:10B09000999D8D91290022238DF80530917A9DF894
:10B0A000063061F3C3038DF80630D17A61F30413DF
:10B0B0008DF80630117A927B002A61F3000314BFE9
:10B0C0000222012262F342038DF80630E36903B1E4
:10B0D0000C93334604AA09A92846FFF74DFF11B087
:10B0E000F0BD22238DF80430537B0021013B8DF805
:10B0F0000510042BD2D801A151F823F0BBB10200F6
:10B100009BB10200A3B1020093B1020097B002000C
:10B1100002AF03223846002100F03EFDE37C00220E
:10B12000013B8DF80920042B07D8DFE803F05E5AB5
:10B130005652030022238DF809309DF80A300E97ED
:10B14000012262F3420311228DF80A308DF80820A3
:10B150006AE712238DF8013049E711238DF800309A
:10B1600034E721238DF8003030E731238DF80030AB
:10B170002CE712238DF8003028E711238DF80130D9
:10B1800035E721238DF8013031E731238DF8013087
:10B190002DE712238DF8053080E721238DF8053047
:10B1A0007CE731238DF8053078E731238DF80430C2
:10B1B0009AE712238DF8043096E711238DF80530B5
:10B1C0006CE711238DF804308EE721238DF80430CD
:10B1D0008AE712238DF80930AFE731238DF8093063
:10B1E000ABE721238DF80930A7E711238DF809304B
:10B1F000A3E700BF90DF7047A5DF7047B5DF70475A
:10B2000070B5002384B0002460F30F0360F31F4384
:10B210006A46204602A9CDE902340094ADF8044004
:10B22000FFF7E8FF064610B9304604B070BD124B78
:10B23000124DED1AED08FDF7D5FA2D0445F0010584
:10B24000034622460E492846FBF7BAFCBDF800200B
:10B25000BDF8023052EA030103D00A492846FBF741
:10B26000AFFCBDF80420002ADED028460649FBF7D3
:10B27000C7FB304604B070BDC0C80200F8C8020069
:10B2800050C302009CC30200DCC3020008B90E20B8
:10B29000704730B403464FF017121B25002041F6CB
:10B2A0001B3419611A60C3F806201D7158819C81F6
:10B2B00030BC70478288002A33D110B50388232B15
:10B2C00082B00C4600F090801ED93A2B6FD0552BDF
:10B2D00028D0242B46D0A37AA3B1E1880020FFF721
:10B2E0008BFF00287BD011280CD0FDF77BFA5A4A3F
:10B2F0005A4B5B499B1ADB081B04024643F00100D2
:10B30000FBF77EFB02B010BD102B3CD0112BE2D11D
:10B310004FF0171141F61B336281C4F80610A38168
:10B32000F0E77047C388C988A272172B38BF17236C
:10B330008B4228BF0B4610462381FFF75FFF002892
:10B340005FD1E37A002BC6D12369002BC3D040F62E
:10B35000772122890091ADF804206946204698475C
:10B36000A37AB9E70B69017A6173002BB3D04DF66C
:10B370007A20ADF8042000908DF80410204669462C
:10B380009847A37AA8E70B790B73C27B012A35D0C3
:10B39000022A31D14988E18022898A423FD3627BE7
:10B3A0009A4298D21846FFF72BFFA37A94E7438975
:10B3B000C98822698B4228BF0B46172B38BF172339
:10B3C00023814AB1E17A39B140F677210091ADF895
:10B3D00004306946204690470023638192E74FF48A
:10B3E0008073638102B010BD0B7B007A984228BF46
:10B3F0001846FFF705FF6EE7C988CDE70988E180A9
:10B40000CAE7FDF7EFF9144A144B16499B1ADB08FB
:10B410001B04024643F00100FBF7F2FA91E700201B
:10B42000FFF7EAFE18B90123E372237BB7E711287F
:10B4300003D10123A372237BB1E7FDF7D3F9064AB9
:10B44000064B07499B1ADB081B04024643F0010028
:10B45000FBF7D6FA237BA2E7C0C80200F8C80200B7
:10B4600034C4020068C40200B0DF704766DF704772
:10B4700060B159B10378DE2B0AD00B684360DE223D
:10B480004FF6FF7302704380002070470E20704714
:10B490000820704738B10378DE2B02D141800020AC
:10B4A0007047082070470E20704700BF91B188B1E7
:10B4B0000B78DE2B0ED130B505464B88808898423C
:10B4C00085B00C4642D02A88012A32D0512A04D0B5
:10B4D00005B030BD70476388A8888342F8D1AB7946
:10B4E000022BF5D1AA7B02F0FD01042944D0052AE4
:10B4F000EED100226946C1E9022200924A608DF82D
:10B500000030FFF7B1FF0028E2D063689847DFE71B
:10B510000021FFF7ABFF034660B3112829D0636811
:10B5200098472B88112B1CD0512BD4D0012BCFD175
:10B53000A8882D7A012DCBD163889842C8D1257275
:10B540000021FFF793FF20BB2072C1E70A7A002A8F
:10B55000DED12A88112A08D0512ABED0012AB7D1BB
:10B56000E7E7AA8863889A42B2D14FF6FF736380F7
:10B57000AEE701232372D4E7694600224FF4C07579
:10B580004A600092C1E902228DF80030ADF8045003
:10B59000B7E71128B9D125729AE700BFA8DF704735
:10B5A000AEDF704762DF70470388502B00D07047D2
:10B5B00010B44B88C4889C4202D05DF8044B70479D
:10B5C000038A012BF9D14B69002BF6D0827C5DF800
:10B5D000044B8088184700BFF0B5324B0E68054613
:10B5E0000FCB8FB002AC84E80F006E61204605F1EE
:10B5F0001201FFF7D7FF08B10FB0F0BDAB7C8DF89B
:10B6000006302A4641F2235301A90120ADF8043047
:10B61000FFF7C4FF0028EFD10146202206A800F062
:10B62000BBFA9DF82530A97C8DF81A102A4623F024
:10B630001203012443F0120341F224574FF0011684
:10B6400032F80A0B8DF8253006A9ADF81870079668
:10B650008DF829408DF82B40FFF794FC0028CBD1C2
:10B660000146202206A800F097FA9DF82530AF7C0D
:10B6700007962A4623F00A0343F00A0332F8020B26
:10B680008DF8294006A941F225558DF82A408DF8FC
:10B6900025308DF81A70ADF81850FFF773FC0FB015
:10B6A000F0BD00BFA8C4020070B588B00E460546C4
:10B6B0008DF80720012404A810220021ADF80E40C7
:10B6C00000F06AFA7389ADF810300DF107020DF140
:10B6D0000E0304A928468DF81240CDE90632FFF783
:10B6E0005FFF08B070BD00BF10DF704770B53C4D04
:10B6F0002B7884B0002B66D13A4E3B49012302A837
:10B700003370FDF759F8039B2BB90EE002A8FDF743
:10B710005DF8039B4BB1D3E900210020904700283E
:10B72000F4D10446204604B070BD304902A8FDF7AC
:10B7300043F8039B4BB1D3E900210020904702A8B6
:10B74000FDF744F8039B002BF5D1294A002312682A
:10B750008DF8083002A80192FCF788F9254901A864
:10B76000FFF7C2FFB0FA80F304465B099DF80800BA
:10B770002B70FCF7A1F9002CD4D11F4B1F491C7072
:10B78000347091F81623EC2352091341DB071ED5C0
:10B790001B4B9A6802B31A6842F480021A6013497C
:10B7A00002A8FDF709F8039B002BBBD0D3E90021C9
:10B7B0000120904702A8FDF709F8039B002BF5D163
:10B7C000204604B070BD0824204604B070BD42F28B
:10B7D0000200FBF7C7FDE2E74FF480030B60DEE7F2
:10B7E000ED2C0020EC2C0020BCC40200D4C40200CC
:10B7F000B8C4020085730200EE2C002000E100E0D6
:10B80000F02C0020014B1878704700BFED2C002071
:10B8100000B583B068460849FCF7CEFF019B43B1F1
:10B82000D3E9002090476846FCF7D0FF019B002B2E
:10B83000F6D103B05DF804FBC8C4020060DF7047B6
:10B8400069DF704761DF7047144B1B782BB330B54D
:10B85000134D91B034240DF1020103A8ADF802405C
:10B86000FFF7F0FF88B9294601A8FCF7A5FF029B66
:10B87000002BF0D0D3E9002103A8904701A8FCF7E2
:10B88000A5FF029B002BF5D1E5E7052801D111B0FA
:10B8900030BDFBF767FD11B030BD7047EF2C0020C5
:10B8A00020C70200002900F0A78070B5544B0B6040
:10B8B00084B00C4605460C22002101A800F06CF96A
:10B8C0000126062301A922688DF8045020208DF856
:10B8D0000660ADF80830FFF7B3FF002843D10C2213
:10B8E000002101A800F058F9012100238DF805106E
:10B8F0002268ADF8063001A94020FFF7A1FF00281B
:10B900006CD10C22002101A800F046F90A2322681C
:10B910008DF8043001A90120FFF792FF00284FD1D4
:10B920000C22002101A800F037F94FF4B06322681F
:10B93000019301A9A120FFF783FF98BB0C220021EE
:10B9400001A800F029F99DF8043022686FF3000384
:10B9500001A9A0208DF80430FFF772FF034680B9DB
:10B96000184604B070BDFCF73DFF264A264B274918
:10B970009B1ADB081B04024643EA0600FBF740F86B
:10B98000ADE7FCF72FFF1F4A1F4B21499B1ADB082D
:10B990001B04024643F00100FBF732F8002318466F
:10B9A00004B070BDFCF71EFF164A174B19499B1ACD
:10B9B000DB081B04024643F00100FBF721F8BDE75A
:10B9C000FCF710FF0F4A104B13499B1ADB081B04AE
:10B9D000024643F00100FBF713F8A1E7FCF702FF72
:10B9E000084A094B0D499B1ADB081B04024643F029
:10B9F0000100FBF705F884E70E231846704700BFE7
:10BA0000B8220020C0C8020008C90200E8C4020031
:10BA10001CC60200C8C502007CC5020030C5020079
:10BA2000F8B506460768FFF709FF3368BB420546CD
:10BA300005D825BB1A4B01221A702846F8BD194BB0
:10BA4000194C1A49E41AE408240444F0020420467C
:10BA5000FAF7FEFE3A46204633681549FBF7B0F880
:10BA60004FF080533268D3F80C3112499B0203F136
:10BA7000005320469A1AFAF7C3FF002DDAD0284661
:10BA8000FCF7B0FE074A084B0B499B1ADB081B0466
:10BA9000024643F00100FAF7B3FF2846F8BD00BFA5
:10BAA000EF2C0020C0C8020008C9020070C60200C6
:10BAB000A0C60200D4C6020000C702004BDF7047D8
:10BAC00010B5114C84B001A8FFF7F8FFA8B92146C2
:10BAD00002A8FCF771FE039B002BF4D0D3E90021F0
