:1000000000000120B5020000DD020000DF02000058
:10001000E1020000E3020000E50200000000000031
:10002000000000000000000000000000E7020000E7
:10003000E902000000000000EB020000ED020000F9
:10004000EF020000EF020000EF020000EF020000EC
:10005000EF020000EF020000EF020000EF020000DC
:10006000EF020000EF020000EF020000EF020000CC
:10007000EF020000EF020000EF020000EF020000BC
:10008000EF020000EF020000EF020000EF020000AC
:10009000EF020000EF020000EF020000EF0200009C
:1000A000EF020000EF020000EF020000EF0200008C
:1000B000EF020000EF02000000000000000000005E
:1000C000EF020000EF020000EF020000EF0200006C
:1000D000EF020000EF020000EF020000000000004D
:1000E0000000000000000000000000000000000010
:1000F0000000000000000000000000000000000000
:1001000000000000000000000000000000000000EF
:1001100000000000000000000000000000000000DF
:1001200000000000000000000000000000000000CF
:1001300000000000000000000000000000000000BF
:1001400000000000000000000000000000000000AF
:10015000000000000000000000000000000000009F
:10016000000000000000000000000000000000008F
:10017000000000000000000000000000000000007F
:10018000000000000000000000000000000000006F
:10019000000000000000000000000000000000005F
:1001A000000000000000000000000000000000004F
:1001B000000000000000000000000000000000003F
:1001C000000000000000000000000000000000002F
:1001D000000000000000000000000000000000001F
:1001E000000000000000000000000000000000000F
:1001F00000000000000000000000000000000000FF
:1002000010B5054C237833B9044B13B10448AFF350
:1002100000800123237010BD6C000020000000004E
:100220007C0D000008B5034B1BB103490348AFF335
:10023000008008BD00000000700000207C0D000060
:10024000154B002B08BF134B9D46A3F5803A0021A8
:100250008B460F461348144A121A00F06FFD0F4BDD
:10026000002B00D098470E4B002B00D09847002061
:10027000002104000D000D48002802D00C48AFF307
:10028000008000F037FD2000290000F0BFF900F0E9
:100290001DFD00BF0000080000000120000000005C
:1002A000000000006C00002088000020000000001A
:1002B000000000000649074A074B9B1A03DD043B78
:1002C000C858D050FBDC00F0DBF9FFF7B9FF0000A5
:1002D000880D0000000000206C000020FEE7FEE713
:1002E000FEE7FEE7FEE7FEE7FEE7FEE7FEE7FEE7E6
:1002F00080B483B000AF78604FF0A04318460C374D
:10030000BD465DF8047B704780B584B000AF78606F
:10031000084611461A460346FB700B46BB7013464F
:100320007B703B1D1846FFF7E3FFF860FA78BB7857
:100330005B001A437B789B001A433B7E1B0242EA18
:1003400003013B7F1B047A681943FB6802F5E072E6
:1003500043F8221000BF1037BD4680BD80B584B081
:1003600002AF786000230193002300930023012251
:1003700001217868FFF7C8FF00BF0837BD4680BD80
:1003800080B584B002AF78600B46FB70FA7800232A
:100390000193002300931346002200217868FFF7A1
:1003A000B3FF00BF0837BD4680BD80B584B000AF45
:1003B00078603B1D1846FFF79BFFF8607B680122C1
:1003C00002FA03F31946F86800F04FF800BF10373F
:1003D000BD4680BD80B584B000AF78603B1D184637
:1003E000FFF786FFF8607B68012202FA03F31946E3
:1003F000F86800F049F800BF1037BD4680BD80B5F1
:1004000084B000AF78603B1D1846FFF771FFF860BD
:10041000FB68D3F80435BB60BB68DA437B68012115
:1004200001FA03F31A40FB68C3F808257B68012230
:100430009A40BB681A40FB68C3F80C2500BF103710
:10044000BD4680BD80B582B000AF786039603B6842
:10045000002B03D17868FFF7BDFF02E07868FFF753
:10046000A4FF00BF0837BD4680BD80B483B000AF95
:10047000786039607B683A68C3F8082500BF0C379C
:10048000BD465DF8047B704780B483B000AF7860F0
:1004900039607B683A68C3F80C2500BF0C37BD464D
:1004A0005DF8047B7047000080B582B000AF7860D3
:1004B000054A7B6813441B7801211846FFF7C2FFE9
:1004C00000BF0837BD4680BD680D000080B582B012
:1004D00000AF00237B6005E07868FFF7E5FF7B68ED
:1004E00001337B607B68032BF6D900BF0837BD461C
:1004F00080BD000080B582B000AF7860054A7B689F
:1005000013441B781846FFF77AFF00BF0837BD4633
:1005100080BD00BF680D000080B582B000AF002331
:100520007B6009E0094A7B6813441B781846FFF793
:1005300015FF7B6801337B607B68032BF2D9FFF7E3
:10054000C5FF00BF0837BD4680BD00BF680D000075
:1005500080B582B000AF00237B600AE0084A7B6868
:1005600013441B7803211846FFF70AFF7B68013309
:100570007B607B68032BF1D900BF0837BD4680BD87
:100580006C0D000080B582B000AF78607B6803F02E
:100590000103002B01D0FFF7BFFF7B6803F00203CC
:1005A000002B01D0FFF7D4FF00BF0837BD4680BD48
:1005B00080B584B000AF78607B68002B0AD0074B11
:1005C00043F00103FB607B689B01BB60FB68B8687C
:1005D000984700E000BF1037BD4680BD700D000099
:1005E00080B582B000AF78607B68002B0AD04FF4F2
:1005F0007A70FFF7DDFF7B68013B7B607B68002B37
:10060000F5D100E000BF0837BD4680BD80B582B09F
:1006100000AF0120FFF7B6FF00237B6009E07B6895
:100620001846FFF767FF6420FFF7DAFF7B680133A6
:100630007B607B68032BF2DDEEE7000080B400AF47
:10064000BFF34F8F054BDB6803F4E0620349044BB3
:100650001343CB60BFF34F8F00BFFDE700ED00E019
:100660000400FA0580B400AF034B044A1A6000BFCF
:10067000BD465DF8047B7047000000200090D00369
:1006800080B500AF00F068F90346002B06D0A04B00
:100690001B681B0A9F4A03F01F03136000F08EF9CA
:1006A0000346002B02D09C4B9C4A1A6000F0A8F92C
:1006B0000346002B06D09A4B1B685B0B994A03F04C
:1006C0000703136000F0CEF90346002B05D0964BCC
:1006D000DB68954A23F08073D36000F0E5F90346A8
:1006E000002B0ED04FF080430022C3F80C214FF0B6
:1006F00080430022C3F810214FF080430022C3F84A
:10070000382500F003FA0346002B02D0874B032262
:100710001A6000F01DFA0346002B0BD0844B052213
:100720001A60844B01221A60834B00221A60834BAB
:100730003F221A6000F02EFA0346002B76D04FF0CD
:1007400080537F4AD3F80434C2F820354FF08053E9
:100750007B4AD3F80834C2F824354FF08053784AE6
:10076000D3F80C34C2F828354FF08053744AD3F8CC
:100770001034C2F82C354FF08053714AD3F814343A
:10078000C2F830354FF080536D4AD3F81834C2F8B0
:1007900034354FF080536A4AD3F81C34C2F84035E0
:1007A0004FF08053664AD3F82034C2F844354FF0F6
:1007B0008053634AD3F82434C2F848354FF080534D
:1007C0005F4AD3F82834C2F84C354FF080535C4A66
:1007D000D3F82C34C2F850354FF08053584AD3F830
:1007E0003034C2F854354FF08053554AD3F834347E
:1007F000C2F860354FF08053514AD3F83834C2F80C
:1008000064354FF080534E4AD3F83C34C2F8683513
:100810004FF080534A4AD3F84034C2F86C354FF059
:100820008053474AD3F84434C2F8703500F0D4F905
:100830000346002B05D0434B1B68434A03F04F038C
:10084000136000F0FBF90346002B0DD04FF08043FE
:10085000D3F8003403F00103002B05D04FF08043A0
:100860006FF00102C3F8002400F01AFA0346002BCF
:1008700005D0364B1B68354A43F480631360344B14
:10088000D3F88830324A43F47003C2F88830BFF39B
:100890004F8FBFF36F8F4FF01023D3F80032002B30
:1008A00005DB4FF01023D3F80432002B2BDA294B51
:1008B0000122C3F8042500BF264BD3F80034002BD7
:1008C000FAD04FF010231522C3F8002200BF214BAD
:1008D000D3F80034002BFAD04FF010231522C3F8C0
:1008E000042200BF1B4BD3F80034002BFAD0194B65
:1008F0000022C3F8042500BF164BD3F80034002BA8
:10090000FAD0FFF79BFEFFF7ADFE00BF80BD00BF32
:10091000240300104035014074C007400DF0ADBA0B
:10092000440200103C050040F0ED00E0A00500404E
:10093000105600408856004018560040145600409B
:1009400000C0004058020010E40E00403C17004078
:1009500000ED00E000E0014080B400AF144B1B68E4
:10096000DBB2062B1DD1134B1B6803F00F03002BCA
:1009700017D1114B1B6803F0F003302B01D1012379
:1009800010E00D4B1B6803F0F003402B01D1012355
:1009900008E0094B1B6803F0F003502B01D1012341
:1009A00000E000231846BD465DF8047B704700BF99
:1009B000E00F00F0E40F00F0E80F00F080B400AFAB
:1009C0000C4B1B68DBB2062B0DD10B4B1B6803F0E5
:1009D0000F03002B07D1094B1B6803F0F003302BEA
:1009E00001D1012300E000231846BD465DF8047BD9
:1009F000704700BFE00F00F0E40F00F0E80F00F0D8
:100A000080B400AF144B1B68DBB2062B1DD1134B17
:100A10001B6803F00F03002B17D1114B1B6803F069
:100A2000F003302B01D1012310E00D4B1B6803F0C4
:100A3000F003402B01D1012308E0094B1B6803F0B0
:100A4000F003502B01D1012300E000231846BD46DE
:100A50005DF8047B704700BFE00F00F0E40F00F08A
:100A6000E80F00F080B400AF0C4B1B68DBB2062B24
:100A70000DD10B4B1B6803F00F03002B07D1094B63
:100A80001B6803F0F003302B01D1012300E00023A9
:100A90001846BD465DF8047B704700BFE00F00F0CC
:100AA000E40F00F0E80F00F080B400AF144B1B68B7
:100AB000DBB2062B1DD1134B1B6803F00F03002B79
:100AC00017D1114B1B6803F0F003302B01D1012328
:100AD00010E00D4B1B6803F0F003402B01D1012304
:100AE00008E0094B1B6803F0F003502B01D10123F0
:100AF00000E000231846BD465DF8047B704700BF48
:100B0000E00F00F0E40F00F0E80F00F080B400AF59
:100B10000C4B1B68DBB2062B0DD10B4B1B6803F093
:100B20000F03002B07D1094B1B6803F0F003302B98
:100B300001D1012300E000231846BD465DF8047B87
:100B4000704700BFE00F00F0E40F00F0E80F00F086
:100B500080B400AF0C4B1B68DBB2062B0DD10B4BE6
:100B60001B6803F00F03002B07D1094B1B6803F030
:100B7000F003302B01D1012300E000231846BD46CD
:100B80005DF8047B704700BFE00F00F0E40F00F059
:100B9000E80F00F080B400AF0C4B1B68DBB2062BF3
:100BA0000DD10B4B1B6803F00F03002B07D1094B32
:100BB0001B6803F0F003502B01D1012300E0002358
:100BC0001846BD465DF8047B704700BFE00F00F09B
:100BD000E40F00F0E80F00F080B400AF144B1B6886
:100BE000DBB2062B1DD1134B1B6803F00F03002B48
:100BF00017D1114B1B6803F0F003302B01D10123F7
:100C000010E00D4B1B6803F0F003402B01D10123D2
:100C100008E0094B1B6803F0F003502B01D10123BE
:100C200000E000231846BD465DF8047B704700BF16
:100C3000E00F00F0E40F00F0E80F00F080B400AF28
:100C4000144B1B68DBB2062B1DD1134B1B6803F042
:100C50000F03002B17D1114B1B6803F0F003302B4F
:100C600001D1012310E00D4B1B6803F0F003402B72
:100C700001D1012308E0094B1B6803F0F003502B5E
:100C800001D1012300E000231846BD465DF8047B36
:100C9000704700BFE00F00F0E40F00F0E80F00F035
:100CA00080B400AF074B1B68062B05D1064B1B68B1
:100CB000062B01D1012300E000231846BD465DF854
:100CC000047B7047300100103401001008B5074B59
:100CD000044613B10021AFF30080054B1868836A06
:100CE00003B19847204600F031F800BF0000000033
:100CF000780D000070B50D4D0D4C641BA41000263E
:100D0000A64209D10B4D0C4C00F022F8641BA41034
:100D10000026A64205D170BD55F8043B9847013620
:100D2000EEE755F8043B98470136F2E764000020EF
:100D30006400002064000020680000200244034694
:100D4000934200D1704703F8011BF9E7FEE700BFAB
:100D5000F8B500BFF8BC08BC9E467047F8B500BFA8
:100D6000F8BC08BC9E467047111213140D0E0F10EC
:100D70000338FDD870470000040000200000000088
:080D8000C0F4FF7F0100000038
:100D88000090D003000000000000000000000000F8
:100D9800000000000000000000000000000000004B
:100DA800000000000000000000000000000000003B
:100DB800000000000000000000000000000000002B
:100DC800000000000000000000000000000000001B
:100DD800000000000000000000000000000000000B
:0C0DE800000000002502000001020000D5
:04000003000002B542
:00000001FF
